{
  "_format": "hh-sol-artifact-1",
  "contractName": "CurveFoundv1",
  "sourceName": "contracts/CurveFoundv1.sol",
  "abi": [
    {
      "inputs": [
        {
          "internalType": "string",
          "name": "_name",
          "type": "string"
        },
        {
          "internalType": "string",
          "name": "_symbol",
          "type": "string"
        },
        {
          "internalType": "string",
          "name": "_cid",
          "type": "string"
        },
        {
          "internalType": "string",
          "name": "_initNotRevealedUri",
          "type": "string"
        }
      ],
      "stateMutability": "nonpayable",
      "type": "constructor"
    },
    {
      "anonymous": false,
      "inputs": [
        {
          "indexed": true,
          "internalType": "address",
          "name": "owner",
          "type": "address"
        },
        {
          "indexed": true,
          "internalType": "address",
          "name": "approved",
          "type": "address"
        },
        {
          "indexed": true,
          "internalType": "uint256",
          "name": "tokenId",
          "type": "uint256"
        }
      ],
      "name": "Approval",
      "type": "event"
    },
    {
      "anonymous": false,
      "inputs": [
        {
          "indexed": true,
          "internalType": "address",
          "name": "owner",
          "type": "address"
        },
        {
          "indexed": true,
          "internalType": "address",
          "name": "operator",
          "type": "address"
        },
        {
          "indexed": false,
          "internalType": "bool",
          "name": "approved",
          "type": "bool"
        }
      ],
      "name": "ApprovalForAll",
      "type": "event"
    },
    {
      "anonymous": false,
      "inputs": [
        {
          "indexed": true,
          "internalType": "address",
          "name": "to",
          "type": "address"
        },
        {
          "indexed": true,
          "internalType": "uint256",
          "name": "tokenId",
          "type": "uint256"
        }
      ],
      "name": "Attest",
      "type": "event"
    },
    {
      "anonymous": false,
      "inputs": [
        {
          "indexed": true,
          "internalType": "address",
          "name": "sender",
          "type": "address"
        },
        {
          "indexed": false,
          "internalType": "uint256",
          "name": "tokenId",
          "type": "uint256"
        }
      ],
      "name": "CurveNFTMinted",
      "type": "event"
    },
    {
      "anonymous": false,
      "inputs": [
        {
          "indexed": true,
          "internalType": "address",
          "name": "previousOwner",
          "type": "address"
        },
        {
          "indexed": true,
          "internalType": "address",
          "name": "newOwner",
          "type": "address"
        }
      ],
      "name": "OwnershipTransferred",
      "type": "event"
    },
    {
      "anonymous": false,
      "inputs": [
        {
          "indexed": true,
          "internalType": "address",
          "name": "to",
          "type": "address"
        },
        {
          "indexed": true,
          "internalType": "uint256",
          "name": "tokenId",
          "type": "uint256"
        }
      ],
      "name": "Revoke",
      "type": "event"
    },
    {
      "anonymous": false,
      "inputs": [
        {
          "indexed": true,
          "internalType": "address",
          "name": "from",
          "type": "address"
        },
        {
          "indexed": true,
          "internalType": "address",
          "name": "to",
          "type": "address"
        },
        {
          "indexed": true,
          "internalType": "uint256",
          "name": "tokenId",
          "type": "uint256"
        }
      ],
      "name": "Transfer",
      "type": "event"
    },
    {
      "inputs": [],
      "name": "MAX_CURVE_MINT",
      "outputs": [
        {
          "internalType": "uint256",
          "name": "",
          "type": "uint256"
        }
      ],
      "stateMutability": "view",
      "type": "function"
    },
    {
      "inputs": [],
      "name": "MAX_SUPPLY",
      "outputs": [
        {
          "internalType": "uint256",
          "name": "",
          "type": "uint256"
        }
      ],
      "stateMutability": "view",
      "type": "function"
    },
    {
      "inputs": [
        {
          "internalType": "uint256",
          "name": "",
          "type": "uint256"
        }
      ],
      "name": "allowlistAddresses",
      "outputs": [
        {
          "internalType": "address",
          "name": "",
          "type": "address"
        }
      ],
      "stateMutability": "view",
      "type": "function"
    },
    {
      "inputs": [
        {
          "internalType": "address[]",
          "name": "_users",
          "type": "address[]"
        }
      ],
      "name": "allowlistUsers",
      "outputs": [],
      "stateMutability": "nonpayable",
      "type": "function"
    },
    {
      "inputs": [
        {
          "internalType": "address",
          "name": "to",
          "type": "address"
        },
        {
          "internalType": "uint256",
          "name": "tokenId",
          "type": "uint256"
        }
      ],
      "name": "approve",
      "outputs": [],
      "stateMutability": "nonpayable",
      "type": "function"
    },
    {
      "inputs": [
        {
          "internalType": "address",
          "name": "owner",
          "type": "address"
        }
      ],
      "name": "balanceOf",
      "outputs": [
        {
          "internalType": "uint256",
          "name": "",
          "type": "uint256"
        }
      ],
      "stateMutability": "view",
      "type": "function"
    },
    {
      "inputs": [
        {
          "internalType": "address",
          "name": "",
          "type": "address"
        }
      ],
      "name": "dateMinted",
      "outputs": [
        {
          "internalType": "uint256",
          "name": "",
          "type": "uint256"
        }
      ],
      "stateMutability": "view",
      "type": "function"
    },
    {
      "inputs": [
        {
          "internalType": "uint256",
          "name": "tokenId",
          "type": "uint256"
        }
      ],
      "name": "getApproved",
      "outputs": [
        {
          "internalType": "address",
          "name": "",
          "type": "address"
        }
      ],
      "stateMutability": "view",
      "type": "function"
    },
    {
      "inputs": [
        {
          "internalType": "address",
          "name": "",
          "type": "address"
        }
      ],
      "name": "hasMinted",
      "outputs": [
        {
          "internalType": "bool",
          "name": "",
          "type": "bool"
        }
      ],
      "stateMutability": "view",
      "type": "function"
    },
    {
      "inputs": [
        {
          "internalType": "address",
          "name": "tokenHolder",
          "type": "address"
        }
      ],
      "name": "howLongMember",
      "outputs": [
        {
          "internalType": "uint256",
          "name": "timeMember",
          "type": "uint256"
        }
      ],
      "stateMutability": "view",
      "type": "function"
    },
    {
      "inputs": [
        {
          "internalType": "address",
          "name": "_user",
          "type": "address"
        }
      ],
      "name": "isAllowlisted",
      "outputs": [
        {
          "internalType": "bool",
          "name": "",
          "type": "bool"
        }
      ],
      "stateMutability": "view",
      "type": "function"
    },
    {
      "inputs": [
        {
          "internalType": "address",
          "name": "owner",
          "type": "address"
        },
        {
          "internalType": "address",
          "name": "operator",
          "type": "address"
        }
      ],
      "name": "isApprovedForAll",
      "outputs": [
        {
          "internalType": "bool",
          "name": "",
          "type": "bool"
        }
      ],
      "stateMutability": "view",
      "type": "function"
    },
    {
      "inputs": [],
      "name": "isMember",
      "outputs": [
        {
          "internalType": "bool",
          "name": "",
          "type": "bool"
        }
      ],
      "stateMutability": "view",
      "type": "function"
    },
    {
      "inputs": [],
      "name": "isRevealed",
      "outputs": [
        {
          "internalType": "bool",
          "name": "",
          "type": "bool"
        }
      ],
      "stateMutability": "view",
      "type": "function"
    },
    {
      "inputs": [],
      "name": "isSaleActive",
      "outputs": [
        {
          "internalType": "bool",
          "name": "",
          "type": "bool"
        }
      ],
      "stateMutability": "view",
      "type": "function"
    },
    {
      "inputs": [
        {
          "internalType": "uint256",
          "name": "_mintAmount",
          "type": "uint256"
        }
      ],
      "name": "mint",
      "outputs": [],
      "stateMutability": "payable",
      "type": "function"
    },
    {
      "inputs": [],
      "name": "name",
      "outputs": [
        {
          "internalType": "string",
          "name": "",
          "type": "string"
        }
      ],
      "stateMutability": "view",
      "type": "function"
    },
    {
      "inputs": [],
      "name": "notRevealedUri",
      "outputs": [
        {
          "internalType": "string",
          "name": "",
          "type": "string"
        }
      ],
      "stateMutability": "view",
      "type": "function"
    },
    {
      "inputs": [],
      "name": "onlyAllowListed",
      "outputs": [
        {
          "internalType": "bool",
          "name": "",
          "type": "bool"
        }
      ],
      "stateMutability": "view",
      "type": "function"
    },
    {
      "inputs": [],
      "name": "owner",
      "outputs": [
        {
          "internalType": "address",
          "name": "",
          "type": "address"
        }
      ],
      "stateMutability": "view",
      "type": "function"
    },
    {
      "inputs": [
        {
          "internalType": "uint256",
          "name": "tokenId",
          "type": "uint256"
        }
      ],
      "name": "ownerOf",
      "outputs": [
        {
          "internalType": "address",
          "name": "",
          "type": "address"
        }
      ],
      "stateMutability": "view",
      "type": "function"
    },
    {
      "inputs": [],
      "name": "price",
      "outputs": [
        {
          "internalType": "uint256",
          "name": "",
          "type": "uint256"
        }
      ],
      "stateMutability": "view",
      "type": "function"
    },
    {
      "inputs": [],
      "name": "renounceOwnership",
      "outputs": [],
      "stateMutability": "nonpayable",
      "type": "function"
    },
    {
      "inputs": [
        {
          "internalType": "uint256",
          "name": "tokenId",
          "type": "uint256"
        }
      ],
      "name": "revokeMembership",
      "outputs": [],
      "stateMutability": "nonpayable",
      "type": "function"
    },
    {
      "inputs": [
        {
          "internalType": "address",
          "name": "from",
          "type": "address"
        },
        {
          "internalType": "address",
          "name": "to",
          "type": "address"
        },
        {
          "internalType": "uint256",
          "name": "tokenId",
          "type": "uint256"
        }
      ],
      "name": "safeTransferFrom",
      "outputs": [],
      "stateMutability": "nonpayable",
      "type": "function"
    },
    {
      "inputs": [
        {
          "internalType": "address",
          "name": "from",
          "type": "address"
        },
        {
          "internalType": "address",
          "name": "to",
          "type": "address"
        },
        {
          "internalType": "uint256",
          "name": "tokenId",
          "type": "uint256"
        },
        {
          "internalType": "bytes",
          "name": "data",
          "type": "bytes"
        }
      ],
      "name": "safeTransferFrom",
      "outputs": [],
      "stateMutability": "nonpayable",
      "type": "function"
    },
    {
      "inputs": [
        {
          "internalType": "bool",
          "name": "change",
          "type": "bool"
        }
      ],
      "name": "setActive",
      "outputs": [],
      "stateMutability": "nonpayable",
      "type": "function"
    },
    {
      "inputs": [
        {
          "internalType": "address",
          "name": "operator",
          "type": "address"
        },
        {
          "internalType": "bool",
          "name": "approved",
          "type": "bool"
        }
      ],
      "name": "setApprovalForAll",
      "outputs": [],
      "stateMutability": "nonpayable",
      "type": "function"
    },
    {
      "inputs": [
        {
          "internalType": "string",
          "name": "newCID",
          "type": "string"
        }
      ],
      "name": "setCID",
      "outputs": [],
      "stateMutability": "nonpayable",
      "type": "function"
    },
    {
      "inputs": [
        {
          "internalType": "uint256",
          "name": "_supply",
          "type": "uint256"
        }
      ],
      "name": "setMaxSupply",
      "outputs": [],
      "stateMutability": "nonpayable",
      "type": "function"
    },
    {
      "inputs": [
        {
          "internalType": "string",
          "name": "_notRevealedURI",
          "type": "string"
        }
      ],
      "name": "setNotRevealedURI",
      "outputs": [],
      "stateMutability": "nonpayable",
      "type": "function"
    },
    {
      "inputs": [
        {
          "internalType": "uint256",
          "name": "_newPrice",
          "type": "uint256"
        }
      ],
      "name": "setPrice",
      "outputs": [],
      "stateMutability": "nonpayable",
      "type": "function"
    },
    {
      "inputs": [
        {
          "internalType": "bool",
          "name": "_state",
          "type": "bool"
        }
      ],
      "name": "setRevealed",
      "outputs": [],
      "stateMutability": "nonpayable",
      "type": "function"
    },
    {
      "inputs": [
        {
          "internalType": "bool",
          "name": "_state",
          "type": "bool"
        }
      ],
      "name": "setonlyAllowListed",
      "outputs": [],
      "stateMutability": "nonpayable",
      "type": "function"
    },
    {
      "inputs": [
        {
          "internalType": "bytes4",
          "name": "interfaceId",
          "type": "bytes4"
        }
      ],
      "name": "supportsInterface",
      "outputs": [
        {
          "internalType": "bool",
          "name": "",
          "type": "bool"
        }
      ],
      "stateMutability": "view",
      "type": "function"
    },
    {
      "inputs": [],
      "name": "symbol",
      "outputs": [
        {
          "internalType": "string",
          "name": "",
          "type": "string"
        }
      ],
      "stateMutability": "view",
      "type": "function"
    },
    {
      "inputs": [
        {
          "internalType": "address",
          "name": "tokenHolder",
          "type": "address"
        }
      ],
      "name": "timeTilExpire",
      "outputs": [
        {
          "internalType": "uint256",
          "name": "timeLeft",
          "type": "uint256"
        }
      ],
      "stateMutability": "view",
      "type": "function"
    },
    {
      "inputs": [
        {
          "internalType": "uint256",
          "name": "_tokenId",
          "type": "uint256"
        }
      ],
      "name": "tokenURI",
      "outputs": [
        {
          "internalType": "string",
          "name": "",
          "type": "string"
        }
      ],
      "stateMutability": "view",
      "type": "function"
    },
    {
      "inputs": [
        {
          "internalType": "address",
          "name": "from",
          "type": "address"
        },
        {
          "internalType": "address",
          "name": "to",
          "type": "address"
        },
        {
          "internalType": "uint256",
          "name": "tokenId",
          "type": "uint256"
        }
      ],
      "name": "transferFrom",
      "outputs": [],
      "stateMutability": "nonpayable",
      "type": "function"
    },
    {
      "inputs": [
        {
          "internalType": "address",
          "name": "newOwner",
          "type": "address"
        }
      ],
      "name": "transferOwnership",
      "outputs": [],
      "stateMutability": "nonpayable",
      "type": "function"
    },
    {
      "inputs": [],
      "name": "withdraw",
      "outputs": [],
      "stateMutability": "payable",
      "type": "function"
    }
  ],
  "bytecode": "0x60806040526000600a60006101000a81548160ff0219169083151502179055506000600a60016101000a81548160ff0219169083151502179055506001600a60026101000a81548160ff02191690831515021790555060c8600c5567016345785d8a0000600d553480156200007357600080fd5b5060405162004f9b38038062004f9b83398181016040528101906200009991906200042f565b83838160009080519060200190620000b39291906200030d565b508060019080519060200190620000cc9291906200030d565b505050620000ef620000e36200014260201b60201c565b6200014a60201b60201c565b600160088190555081600f90805190602001906200010f9291906200030d565b506200012760096200021060201b62001dda1760201c565b62000138816200022660201b60201c565b50505050620006f2565b600033905090565b6000600760009054906101000a900473ffffffffffffffffffffffffffffffffffffffff16905081600760006101000a81548173ffffffffffffffffffffffffffffffffffffffff021916908373ffffffffffffffffffffffffffffffffffffffff1602179055508173ffffffffffffffffffffffffffffffffffffffff168173ffffffffffffffffffffffffffffffffffffffff167f8be0079c531659141344cd1fd0a4f28419497f9722a3daafe3b4186f6b6457e060405160405180910390a35050565b6001816000016000828254019250508190555050565b620002366200025260201b60201c565b80600e90805190602001906200024e9291906200030d565b5050565b620002626200014260201b60201c565b73ffffffffffffffffffffffffffffffffffffffff1662000288620002e360201b60201c565b73ffffffffffffffffffffffffffffffffffffffff1614620002e1576040517f08c379a0000000000000000000000000000000000000000000000000000000008152600401620002d89062000526565b60405180910390fd5b565b6000600760009054906101000a900473ffffffffffffffffffffffffffffffffffffffff16905090565b8280546200031b90620005ee565b90600052602060002090601f0160209004810192826200033f57600085556200038b565b82601f106200035a57805160ff19168380011785556200038b565b828001600101855582156200038b579182015b828111156200038a5782518255916020019190600101906200036d565b5b5090506200039a91906200039e565b5090565b5b80821115620003b95760008160009055506001016200039f565b5090565b6000620003d4620003ce8462000571565b62000548565b905082815260208101848484011115620003ed57600080fd5b620003fa848285620005b8565b509392505050565b600082601f8301126200041457600080fd5b815162000426848260208601620003bd565b91505092915050565b600080600080608085870312156200044657600080fd5b600085015167ffffffffffffffff8111156200046157600080fd5b6200046f8782880162000402565b945050602085015167ffffffffffffffff8111156200048d57600080fd5b6200049b8782880162000402565b935050604085015167ffffffffffffffff811115620004b957600080fd5b620004c78782880162000402565b925050606085015167ffffffffffffffff811115620004e557600080fd5b620004f38782880162000402565b91505092959194509250565b60006200050e602083620005a7565b91506200051b82620006c9565b602082019050919050565b600060208201905081810360008301526200054181620004ff565b9050919050565b60006200055462000567565b905062000562828262000624565b919050565b6000604051905090565b600067ffffffffffffffff8211156200058f576200058e62000689565b5b6200059a82620006b8565b9050602081019050919050565b600082825260208201905092915050565b60005b83811015620005d8578082015181840152602081019050620005bb565b83811115620005e8576000848401525b50505050565b600060028204905060018216806200060757607f821691505b602082108114156200061e576200061d6200065a565b5b50919050565b6200062f82620006b8565b810181811067ffffffffffffffff8211171562000651576200065062000689565b5b80604052505050565b7f4e487b7100000000000000000000000000000000000000000000000000000000600052602260045260246000fd5b7f4e487b7100000000000000000000000000000000000000000000000000000000600052604160045260246000fd5b6000601f19601f8301169050919050565b7f4f776e61626c653a2063616c6c6572206973206e6f7420746865206f776e6572600082015250565b61489980620007026000396000f3fe6080604052600436106102465760003560e01c806370a0823111610139578063acec338a116100b6578063d02982cf1161007a578063d02982cf14610884578063e0a80853146108af578063e985e9c5146108d8578063f2c4ce1e14610915578063f2fde38b1461093e578063f36896cd1461096757610246565b8063acec338a1461078f578063b4032992146107b8578063b88d4fde146107f5578063c3d6ee7f1461081e578063c87b56dd1461084757610246565b8063a035b1fe116100fd578063a035b1fe146106cd578063a0712d68146106f8578063a22cb46514610714578063a84785cb1461073d578063ab8b4a541461076657610246565b806370a08231146105fa578063715018a6146106375780638da5cb5b1461064e57806391b7f5ed1461067957806395d89b41146106a257610246565b806332cb6b0c116101c757806354214f691161018b57806354214f6914610515578063564566a8146105405780635b9e3ccf1461056b5780636352211e146105945780636f8b44b0146105d157610246565b806332cb6b0c1461043d57806338e21cce146104685780633b34efb5146104a55780633ccfd60b146104e257806342842e0e146104ec57610246565b8063095ea7b31161020e578063095ea7b314610358578063100537ca1461038157806323b872dd146103ac57806324c49a78146103d55780633228e1801461041257610246565b806301ffc9a71461024b57806305a3b8091461028857806306fdde03146102c5578063081812fc146102f0578063081c8c441461032d575b600080fd5b34801561025757600080fd5b50610272600480360381019061026d9190613472565b6109a4565b60405161027f9190613ad0565b60405180910390f35b34801561029457600080fd5b506102af60048036038101906102aa919061325d565b610a86565b6040516102bc9190613ad0565b60405180910390f35b3480156102d157600080fd5b506102da610b5b565b6040516102e79190613aeb565b60405180910390f35b3480156102fc57600080fd5b5061031760048036038101906103129190613505565b610bed565b6040516103249190613a69565b60405180910390f35b34801561033957600080fd5b50610342610c33565b60405161034f9190613aeb565b60405180910390f35b34801561036457600080fd5b5061037f600480360381019061037a91906133c8565b610cc1565b005b34801561038d57600080fd5b50610396610dd9565b6040516103a39190613e0d565b60405180910390f35b3480156103b857600080fd5b506103d360048036038101906103ce91906132c2565b610dde565b005b3480156103e157600080fd5b506103fc60048036038101906103f7919061325d565b610e3e565b6040516104099190613e0d565b60405180910390f35b34801561041e57600080fd5b5061042761102c565b6040516104349190613ad0565b60405180910390f35b34801561044957600080fd5b5061045261103f565b60405161045f9190613e0d565b60405180910390f35b34801561047457600080fd5b5061048f600480360381019061048a919061325d565b611045565b60405161049c9190613ad0565b60405180910390f35b3480156104b157600080fd5b506104cc60048036038101906104c7919061325d565b611065565b6040516104d99190613e0d565b60405180910390f35b6104ea611182565b005b3480156104f857600080fd5b50610513600480360381019061050e91906132c2565b611259565b005b34801561052157600080fd5b5061052a611279565b6040516105379190613ad0565b60405180910390f35b34801561054c57600080fd5b5061055561128c565b6040516105629190613ad0565b60405180910390f35b34801561057757600080fd5b50610592600480360381019061058d9190613404565b61129f565b005b3480156105a057600080fd5b506105bb60048036038101906105b69190613505565b6112cb565b6040516105c89190613a69565b60405180910390f35b3480156105dd57600080fd5b506105f860048036038101906105f39190613505565b61137d565b005b34801561060657600080fd5b50610621600480360381019061061c919061325d565b61138f565b60405161062e9190613e0d565b60405180910390f35b34801561064357600080fd5b5061064c611447565b005b34801561065a57600080fd5b5061066361145b565b6040516106709190613a69565b60405180910390f35b34801561068557600080fd5b506106a0600480360381019061069b9190613505565b611485565b005b3480156106ae57600080fd5b506106b7611497565b6040516106c49190613aeb565b60405180910390f35b3480156106d957600080fd5b506106e2611529565b6040516106ef9190613e0d565b60405180910390f35b610712600480360381019061070d9190613505565b61152f565b005b34801561072057600080fd5b5061073b6004803603810190610736919061338c565b6118dc565b005b34801561074957600080fd5b50610764600480360381019061075f9190613449565b6118f2565b005b34801561077257600080fd5b5061078d60048036038101906107889190613505565b611917565b005b34801561079b57600080fd5b506107b660048036038101906107b19190613449565b611978565b005b3480156107c457600080fd5b506107df60048036038101906107da919061325d565b61199d565b6040516107ec9190613e0d565b60405180910390f35b34801561080157600080fd5b5061081c60048036038101906108179190613311565b6119b5565b005b34801561082a57600080fd5b50610845600480360381019061084091906134c4565b611a17565b005b34801561085357600080fd5b5061086e60048036038101906108699190613505565b611a39565b60405161087b9190613aeb565b60405180910390f35b34801561089057600080fd5b50610899611be2565b6040516108a69190613ad0565b60405180910390f35b3480156108bb57600080fd5b506108d660048036038101906108d19190613449565b611c3c565b005b3480156108e457600080fd5b506108ff60048036038101906108fa9190613286565b611c61565b60405161090c9190613ad0565b60405180910390f35b34801561092157600080fd5b5061093c600480360381019061093791906134c4565b611cf5565b005b34801561094a57600080fd5b506109656004803603810190610960919061325d565b611d17565b005b34801561097357600080fd5b5061098e60048036038101906109899190613505565b611d9b565b60405161099b9190613a69565b60405180910390f35b60007f80ac58cd000000000000000000000000000000000000000000000000000000007bffffffffffffffffffffffffffffffffffffffffffffffffffffffff1916827bffffffffffffffffffffffffffffffffffffffffffffffffffffffff19161480610a6f57507f5b5e139f000000000000000000000000000000000000000000000000000000007bffffffffffffffffffffffffffffffffffffffffffffffffffffffff1916827bffffffffffffffffffffffffffffffffffffffffffffffffffffffff1916145b80610a7f5750610a7e82611df0565b5b9050919050565b600080600090505b600b80549050811015610b50578273ffffffffffffffffffffffffffffffffffffffff16600b8281548110610aec577f4e487b7100000000000000000000000000000000000000000000000000000000600052603260045260246000fd5b9060005260206000200160009054906101000a900473ffffffffffffffffffffffffffffffffffffffff1673ffffffffffffffffffffffffffffffffffffffff161415610b3d576001915050610b56565b8080610b4890614140565b915050610a8e565b50600090505b919050565b606060008054610b6a906140dd565b80601f0160208091040260200160405190810160405280929190818152602001828054610b96906140dd565b8015610be35780601f10610bb857610100808354040283529160200191610be3565b820191906000526020600020905b815481529060010190602001808311610bc657829003601f168201915b5050505050905090565b6000610bf882611e5a565b6004600083815260200190815260200160002060009054906101000a900473ffffffffffffffffffffffffffffffffffffffff169050919050565b600e8054610c40906140dd565b80601f0160208091040260200160405190810160405280929190818152602001828054610c6c906140dd565b8015610cb95780601f10610c8e57610100808354040283529160200191610cb9565b820191906000526020600020905b815481529060010190602001808311610c9c57829003601f168201915b505050505081565b6000610ccc826112cb565b90508073ffffffffffffffffffffffffffffffffffffffff168373ffffffffffffffffffffffffffffffffffffffff161415610d3d576040517f08c379a0000000000000000000000000000000000000000000000000000000008152600401610d3490613d4d565b60405180910390fd5b8073ffffffffffffffffffffffffffffffffffffffff16610d5c611ea5565b73ffffffffffffffffffffffffffffffffffffffff161480610d8b5750610d8a81610d85611ea5565b611c61565b5b610dca576040517f08c379a0000000000000000000000000000000000000000000000000000000008152600401610dc190613c6d565b60405180910390fd5b610dd48383611ead565b505050565b600181565b610def610de9611ea5565b82611f66565b610e2e576040517f08c379a0000000000000000000000000000000000000000000000000000000008152600401610e2590613dcd565b60405180910390fd5b610e39838383611ffb565b505050565b6000610e4861145b565b73ffffffffffffffffffffffffffffffffffffffff163373ffffffffffffffffffffffffffffffffffffffff161461102757426312cc0300601160003373ffffffffffffffffffffffffffffffffffffffff1673ffffffffffffffffffffffffffffffffffffffff16815260200190815260200160002054610eca9190613f12565b11610f0a576040517f08c379a0000000000000000000000000000000000000000000000000000000008152600401610f0190613dad565b60405180910390fd5b8173ffffffffffffffffffffffffffffffffffffffff163373ffffffffffffffffffffffffffffffffffffffff161480610f765750610f4761145b565b73ffffffffffffffffffffffffffffffffffffffff163373ffffffffffffffffffffffffffffffffffffffff16145b15611025576000601160003373ffffffffffffffffffffffffffffffffffffffff1673ffffffffffffffffffffffffffffffffffffffff16815260200190815260200160002054111561102457426312cc0300601160008573ffffffffffffffffffffffffffffffffffffffff1673ffffffffffffffffffffffffffffffffffffffff168152602001908152602001600020546110139190613f12565b61101d9190613ff3565b9050611026565b5b5b5b919050565b600a60029054906101000a900460ff1681565b600c5481565b60106020528060005260406000206000915054906101000a900460ff1681565b60008173ffffffffffffffffffffffffffffffffffffffff163373ffffffffffffffffffffffffffffffffffffffff1614806110d357506110a461145b565b73ffffffffffffffffffffffffffffffffffffffff163373ffffffffffffffffffffffffffffffffffffffff16145b1561117c576000601160008473ffffffffffffffffffffffffffffffffffffffff1673ffffffffffffffffffffffffffffffffffffffff16815260200190815260200160002054111561117257601160008373ffffffffffffffffffffffffffffffffffffffff1673ffffffffffffffffffffffffffffffffffffffff168152602001908152602001600020544261116b9190613ff3565b905061117b565b6000905061117d565b5b5b919050565b61118a612262565b600260085414156111d0576040517f08c379a00000000000000000000000000000000000000000000000000000000081526004016111c790613ded565b60405180910390fd5b600260088190555060003373ffffffffffffffffffffffffffffffffffffffff16476040516111fe90613a54565b60006040518083038185875af1925050503d806000811461123b576040519150601f19603f3d011682016040523d82523d6000602084013e611240565b606091505b505090508061124e57600080fd5b506001600881905550565b611274838383604051806020016040528060008152506119b5565b505050565b600a60019054906101000a900460ff1681565b600a60009054906101000a900460ff1681565b6112a7612262565b600b60006112b59190612f36565b8181600b91906112c6929190612f57565b505050565b6000806002600084815260200190815260200160002060009054906101000a900473ffffffffffffffffffffffffffffffffffffffff169050600073ffffffffffffffffffffffffffffffffffffffff168173ffffffffffffffffffffffffffffffffffffffff161415611374576040517f08c379a000000000000000000000000000000000000000000000000000000000815260040161136b90613d2d565b60405180910390fd5b80915050919050565b611385612262565b80600c8190555050565b60008073ffffffffffffffffffffffffffffffffffffffff168273ffffffffffffffffffffffffffffffffffffffff161415611400576040517f08c379a00000000000000000000000000000000000000000000000000000000081526004016113f790613c2d565b60405180910390fd5b600360008373ffffffffffffffffffffffffffffffffffffffff1673ffffffffffffffffffffffffffffffffffffffff168152602001908152602001600020549050919050565b61144f612262565b61145960006122e0565b565b6000600760009054906101000a900473ffffffffffffffffffffffffffffffffffffffff16905090565b61148d612262565b80600d8190555050565b6060600180546114a6906140dd565b80601f01602080910402602001604051908101604052809291908181526020018280546114d2906140dd565b801561151f5780601f106114f45761010080835404028352916020019161151f565b820191906000526020600020905b81548152906001019060200180831161150257829003601f168201915b5050505050905090565b600d5481565b60011515600a60009054906101000a900460ff16151514611585576040517f08c379a000000000000000000000000000000000000000000000000000000000815260040161157c90613b0d565b60405180910390fd5b61158e33610a86565b6115cd576040517f08c379a00000000000000000000000000000000000000000000000000000000081526004016115c490613c0d565b60405180910390fd5b60008111611610576040517f08c379a000000000000000000000000000000000000000000000000000000000815260040161160790613ced565b60405180910390fd5b600c548161161e60096123a6565b6116289190613f12565b1115611669576040517f08c379a000000000000000000000000000000000000000000000000000000000815260040161166090613c4d565b60405180910390fd5b80600d546116779190613f99565b3410156116b9576040517f08c379a00000000000000000000000000000000000000000000000000000000081526004016116b090613d8d565b60405180910390fd5b6116c161145b565b73ffffffffffffffffffffffffffffffffffffffff163373ffffffffffffffffffffffffffffffffffffffff16146117cc5760011515601060003373ffffffffffffffffffffffffffffffffffffffff1673ffffffffffffffffffffffffffffffffffffffff16815260200190815260200160002060009054906101000a900460ff1615151415611787576040517f08c379a000000000000000000000000000000000000000000000000000000000815260040161177e90613bed565b60405180910390fd5b60018111156117cb576040517f08c379a00000000000000000000000000000000000000000000000000000000081526004016117c290613d0d565b60405180910390fd5b5b6001601060003373ffffffffffffffffffffffffffffffffffffffff1673ffffffffffffffffffffffffffffffffffffffff16815260200190815260200160002060006101000a81548160ff02191690831515021790555042601160003373ffffffffffffffffffffffffffffffffffffffff1673ffffffffffffffffffffffffffffffffffffffff16815260200190815260200160002081905550600061187460096123a6565b90506118806009611dda565b61188a33826123b4565b3373ffffffffffffffffffffffffffffffffffffffff167f134410497c691e51932c2dbb8971f79192572d5ca5897c02a5a5eedd1c1d0d0f826040516118d09190613e0d565b60405180910390a25050565b6118ee6118e7611ea5565b83836123d2565b5050565b6118fa612262565b80600a60026101000a81548160ff02191690831515021790555050565b61191f612262565b60006011600061192e846112cb565b73ffffffffffffffffffffffffffffffffffffffff1673ffffffffffffffffffffffffffffffffffffffff168152602001908152602001600020819055506119758161253f565b50565b611980612262565b80600a60006101000a81548160ff02191690831515021790555050565b60116020528060005260406000206000915090505481565b6119c66119c0611ea5565b83611f66565b611a05576040517f08c379a00000000000000000000000000000000000000000000000000000000081526004016119fc90613dcd565b60405180910390fd5b611a1184848484612592565b50505050565b611a1f612262565b80600f9080519060200190611a35929190612ff7565b5050565b6060611a4560096123a6565b821115611a87576040517f08c379a0000000000000000000000000000000000000000000000000000000008152600401611a7e90613ccd565b60405180910390fd5b60001515600a60019054906101000a900460ff1615151415611b3557600e8054611ab0906140dd565b80601f0160208091040260200160405190810160405280929190818152602001828054611adc906140dd565b8015611b295780601f10611afe57610100808354040283529160200191611b29565b820191906000526020600020905b815481529060010190602001808311611b0c57829003601f168201915b50505050509050611bdd565b60006040518060400160405280600781526020017f697066733a2f2f00000000000000000000000000000000000000000000000000815250905060006040518060400160405280600581526020017f2e6a736f6e000000000000000000000000000000000000000000000000000000815250905081600f611bb5866125ee565b83604051602001611bc99493929190613a0b565b604051602081830303815290604052925050505b919050565b600080601160003373ffffffffffffffffffffffffffffffffffffffff1673ffffffffffffffffffffffffffffffffffffffff168152602001908152602001600020541115611c345760019050611c39565b600090505b90565b611c44612262565b80600a60016101000a81548160ff02191690831515021790555050565b6000600560008473ffffffffffffffffffffffffffffffffffffffff1673ffffffffffffffffffffffffffffffffffffffff16815260200190815260200160002060008373ffffffffffffffffffffffffffffffffffffffff1673ffffffffffffffffffffffffffffffffffffffff16815260200190815260200160002060009054906101000a900460ff16905092915050565b611cfd612262565b80600e9080519060200190611d13929190612ff7565b5050565b611d1f612262565b600073ffffffffffffffffffffffffffffffffffffffff168173ffffffffffffffffffffffffffffffffffffffff161415611d8f576040517f08c379a0000000000000000000000000000000000000000000000000000000008152600401611d8690613b4d565b60405180910390fd5b611d98816122e0565b50565b600b8181548110611dab57600080fd5b906000526020600020016000915054906101000a900473ffffffffffffffffffffffffffffffffffffffff1681565b6001816000016000828254019250508190555050565b60007f01ffc9a7000000000000000000000000000000000000000000000000000000007bffffffffffffffffffffffffffffffffffffffffffffffffffffffff1916827bffffffffffffffffffffffffffffffffffffffffffffffffffffffff1916149050919050565b611e638161279b565b611ea2576040517f08c379a0000000000000000000000000000000000000000000000000000000008152600401611e9990613d2d565b60405180910390fd5b50565b600033905090565b816004600083815260200190815260200160002060006101000a81548173ffffffffffffffffffffffffffffffffffffffff021916908373ffffffffffffffffffffffffffffffffffffffff160217905550808273ffffffffffffffffffffffffffffffffffffffff16611f20836112cb565b73ffffffffffffffffffffffffffffffffffffffff167f8c5be1e5ebec7d5bd14f71427d1e84f3dd0314c0f7b2291e5b200ac8c7c3b92560405160405180910390a45050565b600080611f72836112cb565b90508073ffffffffffffffffffffffffffffffffffffffff168473ffffffffffffffffffffffffffffffffffffffff161480611fb45750611fb38185611c61565b5b80611ff257508373ffffffffffffffffffffffffffffffffffffffff16611fda84610bed565b73ffffffffffffffffffffffffffffffffffffffff16145b91505092915050565b8273ffffffffffffffffffffffffffffffffffffffff1661201b826112cb565b73ffffffffffffffffffffffffffffffffffffffff1614612071576040517f08c379a000000000000000000000000000000000000000000000000000000000815260040161206890613b6d565b60405180910390fd5b600073ffffffffffffffffffffffffffffffffffffffff168273ffffffffffffffffffffffffffffffffffffffff1614156120e1576040517f08c379a00000000000000000000000000000000000000000000000000000000081526004016120d890613bad565b60405180910390fd5b6120ec838383612807565b6120f7600082611ead565b6001600360008573ffffffffffffffffffffffffffffffffffffffff1673ffffffffffffffffffffffffffffffffffffffff16815260200190815260200160002060008282546121479190613ff3565b925050819055506001600360008473ffffffffffffffffffffffffffffffffffffffff1673ffffffffffffffffffffffffffffffffffffffff168152602001908152602001600020600082825461219e9190613f12565b92505081905550816002600083815260200190815260200160002060006101000a81548173ffffffffffffffffffffffffffffffffffffffff021916908373ffffffffffffffffffffffffffffffffffffffff160217905550808273ffffffffffffffffffffffffffffffffffffffff168473ffffffffffffffffffffffffffffffffffffffff167fddf252ad1be2c89b69c2b068fc378daa952ba7f163c4a11628f55a4df523b3ef60405160405180910390a461225d83838361292c565b505050565b61226a611ea5565b73ffffffffffffffffffffffffffffffffffffffff1661228861145b565b73ffffffffffffffffffffffffffffffffffffffff16146122de576040517f08c379a00000000000000000000000000000000000000000000000000000000081526004016122d590613cad565b60405180910390fd5b565b6000600760009054906101000a900473ffffffffffffffffffffffffffffffffffffffff16905081600760006101000a81548173ffffffffffffffffffffffffffffffffffffffff021916908373ffffffffffffffffffffffffffffffffffffffff1602179055508173ffffffffffffffffffffffffffffffffffffffff168173ffffffffffffffffffffffffffffffffffffffff167f8be0079c531659141344cd1fd0a4f28419497f9722a3daafe3b4186f6b6457e060405160405180910390a35050565b600081600001549050919050565b6123ce828260405180602001604052806000815250612a2a565b5050565b8173ffffffffffffffffffffffffffffffffffffffff168373ffffffffffffffffffffffffffffffffffffffff161415612441576040517f08c379a000000000000000000000000000000000000000000000000000000000815260040161243890613bcd565b60405180910390fd5b80600560008573ffffffffffffffffffffffffffffffffffffffff1673ffffffffffffffffffffffffffffffffffffffff16815260200190815260200160002060008473ffffffffffffffffffffffffffffffffffffffff1673ffffffffffffffffffffffffffffffffffffffff16815260200190815260200160002060006101000a81548160ff0219169083151502179055508173ffffffffffffffffffffffffffffffffffffffff168373ffffffffffffffffffffffffffffffffffffffff167f17307eab39ab6107e8899845ad3d59bd9653f200f220920489ca2b5937696c31836040516125329190613ad0565b60405180910390a3505050565b61254881612a85565b6000600660008381526020019081526020016000208054612568906140dd565b90501461258f5760066000828152602001908152602001600020600061258e919061307d565b5b50565b61259d848484611ffb565b6125a984848484612ba2565b6125e8576040517f08c379a00000000000000000000000000000000000000000000000000000000081526004016125df90613b2d565b60405180910390fd5b50505050565b60606000821415612636576040518060400160405280600181526020017f30000000000000000000000000000000000000000000000000000000000000008152509050612796565b600082905060005b6000821461266857808061265190614140565b915050600a826126619190613f68565b915061263e565b60008167ffffffffffffffff8111156126aa577f4e487b7100000000000000000000000000000000000000000000000000000000600052604160045260246000fd5b6040519080825280601f01601f1916602001820160405280156126dc5781602001600182028036833780820191505090505b5090505b6000851461278f576001826126f59190613ff3565b9150600a856127049190614189565b60306127109190613f12565b60f81b81838151811061274c577f4e487b7100000000000000000000000000000000000000000000000000000000600052603260045260246000fd5b60200101907effffffffffffffffffffffffffffffffffffffffffffffffffffffffffffff1916908160001a905350600a856127889190613f68565b94506126e0565b8093505050505b919050565b60008073ffffffffffffffffffffffffffffffffffffffff166002600084815260200190815260200160002060009054906101000a900473ffffffffffffffffffffffffffffffffffffffff1673ffffffffffffffffffffffffffffffffffffffff1614159050919050565b600073ffffffffffffffffffffffffffffffffffffffff168373ffffffffffffffffffffffffffffffffffffffff161480612874575061284561145b565b73ffffffffffffffffffffffffffffffffffffffff168373ffffffffffffffffffffffffffffffffffffffff16145b806128ab5750600073ffffffffffffffffffffffffffffffffffffffff168273ffffffffffffffffffffffffffffffffffffffff16145b806128e857506128b961145b565b73ffffffffffffffffffffffffffffffffffffffff168273ffffffffffffffffffffffffffffffffffffffff16145b612927576040517f08c379a000000000000000000000000000000000000000000000000000000000815260040161291e90613d6d565b60405180910390fd5b505050565b600073ffffffffffffffffffffffffffffffffffffffff168373ffffffffffffffffffffffffffffffffffffffff1614156129aa57808273ffffffffffffffffffffffffffffffffffffffff167fe9274a84b19e9428826de6bae8c48329354f8f0e73f771b97cae2d9dccd45a2760405160405180910390a3612a25565b600073ffffffffffffffffffffffffffffffffffffffff168273ffffffffffffffffffffffffffffffffffffffff161415612a2457808273ffffffffffffffffffffffffffffffffffffffff167fec9ab91322523c899ede7830ec9bfc992b5981cdcc27b91162fb23de5791117b60405160405180910390a35b5b505050565b612a348383612d39565b612a416000848484612ba2565b612a80576040517f08c379a0000000000000000000000000000000000000000000000000000000008152600401612a7790613b2d565b60405180910390fd5b505050565b6000612a90826112cb565b9050612a9e81600084612807565b612aa9600083611ead565b6001600360008373ffffffffffffffffffffffffffffffffffffffff1673ffffffffffffffffffffffffffffffffffffffff1681526020019081526020016000206000828254612af99190613ff3565b925050819055506002600083815260200190815260200160002060006101000a81549073ffffffffffffffffffffffffffffffffffffffff021916905581600073ffffffffffffffffffffffffffffffffffffffff168273ffffffffffffffffffffffffffffffffffffffff167fddf252ad1be2c89b69c2b068fc378daa952ba7f163c4a11628f55a4df523b3ef60405160405180910390a4612b9e8160008461292c565b5050565b6000612bc38473ffffffffffffffffffffffffffffffffffffffff16612f13565b15612d2c578373ffffffffffffffffffffffffffffffffffffffff1663150b7a02612bec611ea5565b8786866040518563ffffffff1660e01b8152600401612c0e9493929190613a84565b602060405180830381600087803b158015612c2857600080fd5b505af1925050508015612c5957506040513d601f19601f82011682018060405250810190612c56919061349b565b60015b612cdc573d8060008114612c89576040519150601f19603f3d011682016040523d82523d6000602084013e612c8e565b606091505b50600081511415612cd4576040517f08c379a0000000000000000000000000000000000000000000000000000000008152600401612ccb90613b2d565b60405180910390fd5b805181602001fd5b63150b7a0260e01b7bffffffffffffffffffffffffffffffffffffffffffffffffffffffff1916817bffffffffffffffffffffffffffffffffffffffffffffffffffffffff191614915050612d31565b600190505b949350505050565b600073ffffffffffffffffffffffffffffffffffffffff168273ffffffffffffffffffffffffffffffffffffffff161415612da9576040517f08c379a0000000000000000000000000000000000000000000000000000000008152600401612da090613c8d565b60405180910390fd5b612db28161279b565b15612df2576040517f08c379a0000000000000000000000000000000000000000000000000000000008152600401612de990613b8d565b60405180910390fd5b612dfe60008383612807565b6001600360008473ffffffffffffffffffffffffffffffffffffffff1673ffffffffffffffffffffffffffffffffffffffff1681526020019081526020016000206000828254612e4e9190613f12565b92505081905550816002600083815260200190815260200160002060006101000a81548173ffffffffffffffffffffffffffffffffffffffff021916908373ffffffffffffffffffffffffffffffffffffffff160217905550808273ffffffffffffffffffffffffffffffffffffffff16600073ffffffffffffffffffffffffffffffffffffffff167fddf252ad1be2c89b69c2b068fc378daa952ba7f163c4a11628f55a4df523b3ef60405160405180910390a4612f0f6000838361292c565b5050565b6000808273ffffffffffffffffffffffffffffffffffffffff163b119050919050565b5080546000825590600052602060002090810190612f5491906130bd565b50565b828054828255906000526020600020908101928215612fe6579160200282015b82811115612fe557823573ffffffffffffffffffffffffffffffffffffffff168260006101000a81548173ffffffffffffffffffffffffffffffffffffffff021916908373ffffffffffffffffffffffffffffffffffffffff16021790555091602001919060010190612f77565b5b509050612ff391906130bd565b5090565b828054613003906140dd565b90600052602060002090601f016020900481019282613025576000855561306c565b82601f1061303e57805160ff191683800117855561306c565b8280016001018555821561306c579182015b8281111561306b578251825591602001919060010190613050565b5b50905061307991906130bd565b5090565b508054613089906140dd565b6000825580601f1061309b57506130ba565b601f0160209004906000526020600020908101906130b991906130bd565b5b50565b5b808211156130d65760008160009055506001016130be565b5090565b60006130ed6130e884613e4d565b613e28565b90508281526020810184848401111561310557600080fd5b61311084828561409b565b509392505050565b600061312b61312684613e7e565b613e28565b90508281526020810184848401111561314357600080fd5b61314e84828561409b565b509392505050565b60008135905061316581614807565b92915050565b60008083601f84011261317d57600080fd5b8235905067ffffffffffffffff81111561319657600080fd5b6020830191508360208202830111156131ae57600080fd5b9250929050565b6000813590506131c48161481e565b92915050565b6000813590506131d981614835565b92915050565b6000815190506131ee81614835565b92915050565b600082601f83011261320557600080fd5b81356132158482602086016130da565b91505092915050565b600082601f83011261322f57600080fd5b813561323f848260208601613118565b91505092915050565b6000813590506132578161484c565b92915050565b60006020828403121561326f57600080fd5b600061327d84828501613156565b91505092915050565b6000806040838503121561329957600080fd5b60006132a785828601613156565b92505060206132b885828601613156565b9150509250929050565b6000806000606084860312156132d757600080fd5b60006132e586828701613156565b93505060206132f686828701613156565b925050604061330786828701613248565b9150509250925092565b6000806000806080858703121561332757600080fd5b600061333587828801613156565b945050602061334687828801613156565b935050604061335787828801613248565b925050606085013567ffffffffffffffff81111561337457600080fd5b613380878288016131f4565b91505092959194509250565b6000806040838503121561339f57600080fd5b60006133ad85828601613156565b92505060206133be858286016131b5565b9150509250929050565b600080604083850312156133db57600080fd5b60006133e985828601613156565b92505060206133fa85828601613248565b9150509250929050565b6000806020838503121561341757600080fd5b600083013567ffffffffffffffff81111561343157600080fd5b61343d8582860161316b565b92509250509250929050565b60006020828403121561345b57600080fd5b6000613469848285016131b5565b91505092915050565b60006020828403121561348457600080fd5b6000613492848285016131ca565b91505092915050565b6000602082840312156134ad57600080fd5b60006134bb848285016131df565b91505092915050565b6000602082840312156134d657600080fd5b600082013567ffffffffffffffff8111156134f057600080fd5b6134fc8482850161321e565b91505092915050565b60006020828403121561351757600080fd5b600061352584828501613248565b91505092915050565b61353781614027565b82525050565b61354681614039565b82525050565b600061355782613ec4565b6135618185613eda565b93506135718185602086016140aa565b61357a81614276565b840191505092915050565b600061359082613ecf565b61359a8185613ef6565b93506135aa8185602086016140aa565b6135b381614276565b840191505092915050565b60006135c982613ecf565b6135d38185613f07565b93506135e38185602086016140aa565b80840191505092915050565b600081546135fc816140dd565b6136068186613f07565b94506001821660008114613621576001811461363257613665565b60ff19831686528186019350613665565b61363b85613eaf565b60005b8381101561365d5781548189015260018201915060208101905061363e565b838801955050505b50505092915050565b600061367b602383613ef6565b915061368682614287565b604082019050919050565b600061369e603283613ef6565b91506136a9826142d6565b604082019050919050565b60006136c1602683613ef6565b91506136cc82614325565b604082019050919050565b60006136e4602583613ef6565b91506136ef82614374565b604082019050919050565b6000613707601c83613ef6565b9150613712826143c3565b602082019050919050565b600061372a602483613ef6565b9150613735826143ec565b604082019050919050565b600061374d601983613ef6565b91506137588261443b565b602082019050919050565b6000613770601a83613ef6565b915061377b82614464565b602082019050919050565b6000613793601783613ef6565b915061379e8261448d565b602082019050919050565b60006137b6602983613ef6565b91506137c1826144b6565b604082019050919050565b60006137d9601683613ef6565b91506137e482614505565b602082019050919050565b60006137fc603e83613ef6565b91506138078261452e565b604082019050919050565b600061381f602083613ef6565b915061382a8261457d565b602082019050919050565b6000613842602083613ef6565b915061384d826145a6565b602082019050919050565b6000613865602f83613ef6565b9150613870826145cf565b604082019050919050565b6000613888601b83613ef6565b91506138938261461e565b602082019050919050565b60006138ab601883613ef6565b91506138b682614647565b602082019050919050565b60006138ce601883613ef6565b91506138d982614670565b602082019050919050565b60006138f1602183613ef6565b91506138fc82614699565b604082019050919050565b6000613914601e83613ef6565b915061391f826146e8565b602082019050919050565b6000613937600083613eeb565b915061394282614711565b600082019050919050565b600061395a601283613ef6565b915061396582614714565b602082019050919050565b600061397d601b83613ef6565b91506139888261473d565b602082019050919050565b60006139a0602e83613ef6565b91506139ab82614766565b604082019050919050565b60006139c3601f83613ef6565b91506139ce826147b5565b602082019050919050565b60006139e6600183613f07565b91506139f1826147de565b600182019050919050565b613a0581614091565b82525050565b6000613a1782876135be565b9150613a2382866135ef565b9150613a2e826139d9565b9150613a3a82856135be565b9150613a4682846135be565b915081905095945050505050565b6000613a5f8261392a565b9150819050919050565b6000602082019050613a7e600083018461352e565b92915050565b6000608082019050613a99600083018761352e565b613aa6602083018661352e565b613ab360408301856139fc565b8181036060830152613ac5818461354c565b905095945050505050565b6000602082019050613ae5600083018461353d565b92915050565b60006020820190508181036000830152613b058184613585565b905092915050565b60006020820190508181036000830152613b268161366e565b9050919050565b60006020820190508181036000830152613b4681613691565b9050919050565b60006020820190508181036000830152613b66816136b4565b9050919050565b60006020820190508181036000830152613b86816136d7565b9050919050565b60006020820190508181036000830152613ba6816136fa565b9050919050565b60006020820190508181036000830152613bc68161371d565b9050919050565b60006020820190508181036000830152613be681613740565b9050919050565b60006020820190508181036000830152613c0681613763565b9050919050565b60006020820190508181036000830152613c2681613786565b9050919050565b60006020820190508181036000830152613c46816137a9565b9050919050565b60006020820190508181036000830152613c66816137cc565b9050919050565b60006020820190508181036000830152613c86816137ef565b9050919050565b60006020820190508181036000830152613ca681613812565b9050919050565b60006020820190508181036000830152613cc681613835565b9050919050565b60006020820190508181036000830152613ce681613858565b9050919050565b60006020820190508181036000830152613d068161387b565b9050919050565b60006020820190508181036000830152613d268161389e565b9050919050565b60006020820190508181036000830152613d46816138c1565b9050919050565b60006020820190508181036000830152613d66816138e4565b9050919050565b60006020820190508181036000830152613d8681613907565b9050919050565b60006020820190508181036000830152613da68161394d565b9050919050565b60006020820190508181036000830152613dc681613970565b9050919050565b60006020820190508181036000830152613de681613993565b9050919050565b60006020820190508181036000830152613e06816139b6565b9050919050565b6000602082019050613e2260008301846139fc565b92915050565b6000613e32613e43565b9050613e3e828261410f565b919050565b6000604051905090565b600067ffffffffffffffff821115613e6857613e67614247565b5b613e7182614276565b9050602081019050919050565b600067ffffffffffffffff821115613e9957613e98614247565b5b613ea282614276565b9050602081019050919050565b60008190508160005260206000209050919050565b600081519050919050565b600081519050919050565b600082825260208201905092915050565b600081905092915050565b600082825260208201905092915050565b600081905092915050565b6000613f1d82614091565b9150613f2883614091565b9250827fffffffffffffffffffffffffffffffffffffffffffffffffffffffffffffffff03821115613f5d57613f5c6141ba565b5b828201905092915050565b6000613f7382614091565b9150613f7e83614091565b925082613f8e57613f8d6141e9565b5b828204905092915050565b6000613fa482614091565b9150613faf83614091565b9250817fffffffffffffffffffffffffffffffffffffffffffffffffffffffffffffffff0483118215151615613fe857613fe76141ba565b5b828202905092915050565b6000613ffe82614091565b915061400983614091565b92508282101561401c5761401b6141ba565b5b828203905092915050565b600061403282614071565b9050919050565b60008115159050919050565b60007fffffffff0000000000000000000000000000000000000000000000000000000082169050919050565b600073ffffffffffffffffffffffffffffffffffffffff82169050919050565b6000819050919050565b82818337600083830152505050565b60005b838110156140c85780820151818401526020810190506140ad565b838111156140d7576000848401525b50505050565b600060028204905060018216806140f557607f821691505b6020821081141561410957614108614218565b5b50919050565b61411882614276565b810181811067ffffffffffffffff8211171561413757614136614247565b5b80604052505050565b600061414b82614091565b91507fffffffffffffffffffffffffffffffffffffffffffffffffffffffffffffffff82141561417e5761417d6141ba565b5b600182019050919050565b600061419482614091565b915061419f83614091565b9250826141af576141ae6141e9565b5b828206905092915050565b7f4e487b7100000000000000000000000000000000000000000000000000000000600052601160045260246000fd5b7f4e487b7100000000000000000000000000000000000000000000000000000000600052601260045260246000fd5b7f4e487b7100000000000000000000000000000000000000000000000000000000600052602260045260246000fd5b7f4e487b7100000000000000000000000000000000000000000000000000000000600052604160045260246000fd5b6000601f19601f8301169050919050565b7f486f6c6420757021205468652073616c65206973206e6f74206163746976652060008201527f7965740000000000000000000000000000000000000000000000000000000000602082015250565b7f4552433732313a207472616e7366657220746f206e6f6e20455243373231526560008201527f63656976657220696d706c656d656e7465720000000000000000000000000000602082015250565b7f4f776e61626c653a206e6577206f776e657220697320746865207a65726f206160008201527f6464726573730000000000000000000000000000000000000000000000000000602082015250565b7f4552433732313a207472616e736665722066726f6d20696e636f72726563742060008201527f6f776e6572000000000000000000000000000000000000000000000000000000602082015250565b7f4552433732313a20746f6b656e20616c7265616479206d696e74656400000000600082015250565b7f4552433732313a207472616e7366657220746f20746865207a65726f2061646460008201527f7265737300000000000000000000000000000000000000000000000000000000602082015250565b7f4552433732313a20617070726f766520746f2063616c6c657200000000000000600082015250565b7f416464726573732068617320616c7265616479206d696e746564000000000000600082015250565b7f55736572206973206e6f7420616c6c6f776c6973746564000000000000000000600082015250565b7f4552433732313a2061646472657373207a65726f206973206e6f74206120766160008201527f6c6964206f776e65720000000000000000000000000000000000000000000000602082015250565b7f6d6178204e4654206c696d697420657863656564656400000000000000000000600082015250565b7f4552433732313a20617070726f76652063616c6c6572206973206e6f7420746f60008201527f6b656e206f776e6572206e6f7220617070726f76656420666f7220616c6c0000602082015250565b7f4552433732313a206d696e7420746f20746865207a65726f2061646472657373600082015250565b7f4f776e61626c653a2063616c6c6572206973206e6f7420746865206f776e6572600082015250565b7f4552433732314d657461646174613a2055524920717565727920666f72206e6f60008201527f6e6578697374656e7420746f6b656e0000000000000000000000000000000000602082015250565b7f596f752063616e2774206275792030206d656d62657273686970730000000000600082015250565b7f6d6178206d696e7420616d6f756e742065786365656465640000000000000000600082015250565b7f4552433732313a20696e76616c696420746f6b656e2049440000000000000000600082015250565b7f4552433732313a20617070726f76616c20746f2063757272656e74206f776e6560008201527f7200000000000000000000000000000000000000000000000000000000000000602082015250565b7f596f752063616e6e6f74207472616e73666572207468697320746f6b656e0000600082015250565b50565b7f696e73756666696369656e742066756e64730000000000000000000000000000600082015250565b7f596f7572206d656d626572736869702068617320657870697265640000000000600082015250565b7f4552433732313a2063616c6c6572206973206e6f7420746f6b656e206f776e6560008201527f72206e6f7220617070726f766564000000000000000000000000000000000000602082015250565b7f5265656e7472616e637947756172643a207265656e7472616e742063616c6c00600082015250565b7f2f00000000000000000000000000000000000000000000000000000000000000600082015250565b61481081614027565b811461481b57600080fd5b50565b61482781614039565b811461483257600080fd5b50565b61483e81614045565b811461484957600080fd5b50565b61485581614091565b811461486057600080fd5b5056fea2646970667358221220c62308faffe5916164307cdf1133b70a045360b14361bc6235e677c58d5a55f764736f6c63430008010033",
  "linkReferences": {},
  "deployedLinkReferences": {}
}