{
  "_format": "hh-sol-artifact-1",
  "contractName": "CurveAnnualFounding",
  "sourceName": "contracts/CurveFoundv1.sol",
  "abi": [
    {
      "inputs": [
        {
          "internalType": "string",
          "name": "_name",
          "type": "string"
        },
        {
          "internalType": "string",
          "name": "_symbol",
          "type": "string"
        },
        {
          "internalType": "string",
          "name": "_cid",
          "type": "string"
        },
        {
          "internalType": "string",
          "name": "_initNotRevealedUri",
          "type": "string"
        }
      ],
      "stateMutability": "nonpayable",
      "type": "constructor"
    },
    {
      "anonymous": false,
      "inputs": [
        {
          "indexed": true,
          "internalType": "address",
          "name": "owner",
          "type": "address"
        },
        {
          "indexed": true,
          "internalType": "address",
          "name": "approved",
          "type": "address"
        },
        {
          "indexed": true,
          "internalType": "uint256",
          "name": "tokenId",
          "type": "uint256"
        }
      ],
      "name": "Approval",
      "type": "event"
    },
    {
      "anonymous": false,
      "inputs": [
        {
          "indexed": true,
          "internalType": "address",
          "name": "owner",
          "type": "address"
        },
        {
          "indexed": true,
          "internalType": "address",
          "name": "operator",
          "type": "address"
        },
        {
          "indexed": false,
          "internalType": "bool",
          "name": "approved",
          "type": "bool"
        }
      ],
      "name": "ApprovalForAll",
      "type": "event"
    },
    {
      "anonymous": false,
      "inputs": [
        {
          "indexed": true,
          "internalType": "address",
          "name": "to",
          "type": "address"
        },
        {
          "indexed": true,
          "internalType": "uint256",
          "name": "tokenId",
          "type": "uint256"
        }
      ],
      "name": "Attest",
      "type": "event"
    },
    {
      "anonymous": false,
      "inputs": [
        {
          "indexed": true,
          "internalType": "address",
          "name": "sender",
          "type": "address"
        },
        {
          "indexed": false,
          "internalType": "uint256",
          "name": "tokenId",
          "type": "uint256"
        }
      ],
      "name": "CurveNFTMinted",
      "type": "event"
    },
    {
      "anonymous": false,
      "inputs": [
        {
          "indexed": true,
          "internalType": "address",
          "name": "previousOwner",
          "type": "address"
        },
        {
          "indexed": true,
          "internalType": "address",
          "name": "newOwner",
          "type": "address"
        }
      ],
      "name": "OwnershipTransferred",
      "type": "event"
    },
    {
      "anonymous": false,
      "inputs": [
        {
          "indexed": true,
          "internalType": "address",
          "name": "to",
          "type": "address"
        },
        {
          "indexed": true,
          "internalType": "uint256",
          "name": "tokenId",
          "type": "uint256"
        }
      ],
      "name": "Revoke",
      "type": "event"
    },
    {
      "anonymous": false,
      "inputs": [
        {
          "indexed": true,
          "internalType": "address",
          "name": "from",
          "type": "address"
        },
        {
          "indexed": true,
          "internalType": "address",
          "name": "to",
          "type": "address"
        },
        {
          "indexed": true,
          "internalType": "uint256",
          "name": "tokenId",
          "type": "uint256"
        }
      ],
      "name": "Transfer",
      "type": "event"
    },
    {
      "inputs": [],
      "name": "MAX_CURVE_MINT",
      "outputs": [
        {
          "internalType": "uint256",
          "name": "",
          "type": "uint256"
        }
      ],
      "stateMutability": "view",
      "type": "function"
    },
    {
      "inputs": [],
      "name": "MAX_SUPPLY",
      "outputs": [
        {
          "internalType": "uint256",
          "name": "",
          "type": "uint256"
        }
      ],
      "stateMutability": "view",
      "type": "function"
    },
    {
      "inputs": [
        {
          "internalType": "uint256",
          "name": "",
          "type": "uint256"
        }
      ],
      "name": "allowlistAddresses",
      "outputs": [
        {
          "internalType": "address",
          "name": "",
          "type": "address"
        }
      ],
      "stateMutability": "view",
      "type": "function"
    },
    {
      "inputs": [
        {
          "internalType": "address[]",
          "name": "_users",
          "type": "address[]"
        }
      ],
      "name": "allowlistUsers",
      "outputs": [],
      "stateMutability": "nonpayable",
      "type": "function"
    },
    {
      "inputs": [
        {
          "internalType": "address",
          "name": "to",
          "type": "address"
        },
        {
          "internalType": "uint256",
          "name": "tokenId",
          "type": "uint256"
        }
      ],
      "name": "approve",
      "outputs": [],
      "stateMutability": "nonpayable",
      "type": "function"
    },
    {
      "inputs": [
        {
          "internalType": "address",
          "name": "owner",
          "type": "address"
        }
      ],
      "name": "balanceOf",
      "outputs": [
        {
          "internalType": "uint256",
          "name": "",
          "type": "uint256"
        }
      ],
      "stateMutability": "view",
      "type": "function"
    },
    {
      "inputs": [
        {
          "internalType": "address",
          "name": "",
          "type": "address"
        }
      ],
      "name": "dateMinted",
      "outputs": [
        {
          "internalType": "uint256",
          "name": "",
          "type": "uint256"
        }
      ],
      "stateMutability": "view",
      "type": "function"
    },
    {
      "inputs": [
        {
          "internalType": "uint256",
          "name": "tokenId",
          "type": "uint256"
        }
      ],
      "name": "getApproved",
      "outputs": [
        {
          "internalType": "address",
          "name": "",
          "type": "address"
        }
      ],
      "stateMutability": "view",
      "type": "function"
    },
    {
      "inputs": [
        {
          "internalType": "address",
          "name": "",
          "type": "address"
        }
      ],
      "name": "hasMinted",
      "outputs": [
        {
          "internalType": "bool",
          "name": "",
          "type": "bool"
        }
      ],
      "stateMutability": "view",
      "type": "function"
    },
    {
      "inputs": [
        {
          "internalType": "address",
          "name": "tokenHolder",
          "type": "address"
        }
      ],
      "name": "howLongMember",
      "outputs": [
        {
          "internalType": "uint256",
          "name": "timeMember",
          "type": "uint256"
        }
      ],
      "stateMutability": "view",
      "type": "function"
    },
    {
      "inputs": [
        {
          "internalType": "address",
          "name": "_user",
          "type": "address"
        }
      ],
      "name": "isAllowlisted",
      "outputs": [
        {
          "internalType": "bool",
          "name": "",
          "type": "bool"
        }
      ],
      "stateMutability": "view",
      "type": "function"
    },
    {
      "inputs": [
        {
          "internalType": "address",
          "name": "owner",
          "type": "address"
        },
        {
          "internalType": "address",
          "name": "operator",
          "type": "address"
        }
      ],
      "name": "isApprovedForAll",
      "outputs": [
        {
          "internalType": "bool",
          "name": "",
          "type": "bool"
        }
      ],
      "stateMutability": "view",
      "type": "function"
    },
    {
      "inputs": [],
      "name": "isMember",
      "outputs": [
        {
          "internalType": "bool",
          "name": "",
          "type": "bool"
        }
      ],
      "stateMutability": "view",
      "type": "function"
    },
    {
      "inputs": [],
      "name": "isRevealed",
      "outputs": [
        {
          "internalType": "bool",
          "name": "",
          "type": "bool"
        }
      ],
      "stateMutability": "view",
      "type": "function"
    },
    {
      "inputs": [],
      "name": "isSaleActive",
      "outputs": [
        {
          "internalType": "bool",
          "name": "",
          "type": "bool"
        }
      ],
      "stateMutability": "view",
      "type": "function"
    },
    {
      "inputs": [
        {
          "internalType": "uint256",
          "name": "_mintAmount",
          "type": "uint256"
        }
      ],
      "name": "mint",
      "outputs": [],
      "stateMutability": "payable",
      "type": "function"
    },
    {
      "inputs": [],
      "name": "name",
      "outputs": [
        {
          "internalType": "string",
          "name": "",
          "type": "string"
        }
      ],
      "stateMutability": "view",
      "type": "function"
    },
    {
      "inputs": [],
      "name": "notRevealedUri",
      "outputs": [
        {
          "internalType": "string",
          "name": "",
          "type": "string"
        }
      ],
      "stateMutability": "view",
      "type": "function"
    },
    {
      "inputs": [],
      "name": "onlyAllowListed",
      "outputs": [
        {
          "internalType": "bool",
          "name": "",
          "type": "bool"
        }
      ],
      "stateMutability": "view",
      "type": "function"
    },
    {
      "inputs": [],
      "name": "owner",
      "outputs": [
        {
          "internalType": "address",
          "name": "",
          "type": "address"
        }
      ],
      "stateMutability": "view",
      "type": "function"
    },
    {
      "inputs": [
        {
          "internalType": "uint256",
          "name": "tokenId",
          "type": "uint256"
        }
      ],
      "name": "ownerOf",
      "outputs": [
        {
          "internalType": "address",
          "name": "",
          "type": "address"
        }
      ],
      "stateMutability": "view",
      "type": "function"
    },
    {
      "inputs": [],
      "name": "price",
      "outputs": [
        {
          "internalType": "uint256",
          "name": "",
          "type": "uint256"
        }
      ],
      "stateMutability": "view",
      "type": "function"
    },
    {
      "inputs": [],
      "name": "renounceOwnership",
      "outputs": [],
      "stateMutability": "nonpayable",
      "type": "function"
    },
    {
      "inputs": [
        {
          "internalType": "uint256",
          "name": "tokenId",
          "type": "uint256"
        }
      ],
      "name": "revokeMembership",
      "outputs": [],
      "stateMutability": "nonpayable",
      "type": "function"
    },
    {
      "inputs": [
        {
          "internalType": "address",
          "name": "from",
          "type": "address"
        },
        {
          "internalType": "address",
          "name": "to",
          "type": "address"
        },
        {
          "internalType": "uint256",
          "name": "tokenId",
          "type": "uint256"
        }
      ],
      "name": "safeTransferFrom",
      "outputs": [],
      "stateMutability": "nonpayable",
      "type": "function"
    },
    {
      "inputs": [
        {
          "internalType": "address",
          "name": "from",
          "type": "address"
        },
        {
          "internalType": "address",
          "name": "to",
          "type": "address"
        },
        {
          "internalType": "uint256",
          "name": "tokenId",
          "type": "uint256"
        },
        {
          "internalType": "bytes",
          "name": "data",
          "type": "bytes"
        }
      ],
      "name": "safeTransferFrom",
      "outputs": [],
      "stateMutability": "nonpayable",
      "type": "function"
    },
    {
      "inputs": [
        {
          "internalType": "bool",
          "name": "change",
          "type": "bool"
        }
      ],
      "name": "setActive",
      "outputs": [],
      "stateMutability": "nonpayable",
      "type": "function"
    },
    {
      "inputs": [
        {
          "internalType": "address",
          "name": "operator",
          "type": "address"
        },
        {
          "internalType": "bool",
          "name": "approved",
          "type": "bool"
        }
      ],
      "name": "setApprovalForAll",
      "outputs": [],
      "stateMutability": "nonpayable",
      "type": "function"
    },
    {
      "inputs": [
        {
          "internalType": "string",
          "name": "newCID",
          "type": "string"
        }
      ],
      "name": "setCID",
      "outputs": [],
      "stateMutability": "nonpayable",
      "type": "function"
    },
    {
      "inputs": [
        {
          "internalType": "uint256",
          "name": "_supply",
          "type": "uint256"
        }
      ],
      "name": "setMaxSupply",
      "outputs": [],
      "stateMutability": "nonpayable",
      "type": "function"
    },
    {
      "inputs": [
        {
          "internalType": "string",
          "name": "_notRevealedURI",
          "type": "string"
        }
      ],
      "name": "setNotRevealedURI",
      "outputs": [],
      "stateMutability": "nonpayable",
      "type": "function"
    },
    {
      "inputs": [
        {
          "internalType": "uint256",
          "name": "_newPrice",
          "type": "uint256"
        }
      ],
      "name": "setPrice",
      "outputs": [],
      "stateMutability": "nonpayable",
      "type": "function"
    },
    {
      "inputs": [
        {
          "internalType": "bool",
          "name": "_state",
          "type": "bool"
        }
      ],
      "name": "setRevealed",
      "outputs": [],
      "stateMutability": "nonpayable",
      "type": "function"
    },
    {
      "inputs": [
        {
          "internalType": "bool",
          "name": "_state",
          "type": "bool"
        }
      ],
      "name": "setonlyAllowListed",
      "outputs": [],
      "stateMutability": "nonpayable",
      "type": "function"
    },
    {
      "inputs": [
        {
          "internalType": "bytes4",
          "name": "interfaceId",
          "type": "bytes4"
        }
      ],
      "name": "supportsInterface",
      "outputs": [
        {
          "internalType": "bool",
          "name": "",
          "type": "bool"
        }
      ],
      "stateMutability": "view",
      "type": "function"
    },
    {
      "inputs": [],
      "name": "symbol",
      "outputs": [
        {
          "internalType": "string",
          "name": "",
          "type": "string"
        }
      ],
      "stateMutability": "view",
      "type": "function"
    },
    {
      "inputs": [
        {
          "internalType": "address",
          "name": "tokenHolder",
          "type": "address"
        }
      ],
      "name": "timeTilExpire",
      "outputs": [
        {
          "internalType": "uint256",
          "name": "timeLeft",
          "type": "uint256"
        }
      ],
      "stateMutability": "view",
      "type": "function"
    },
    {
      "inputs": [
        {
          "internalType": "uint256",
          "name": "_tokenId",
          "type": "uint256"
        }
      ],
      "name": "tokenURI",
      "outputs": [
        {
          "internalType": "string",
          "name": "",
          "type": "string"
        }
      ],
      "stateMutability": "view",
      "type": "function"
    },
    {
      "inputs": [
        {
          "internalType": "address",
          "name": "from",
          "type": "address"
        },
        {
          "internalType": "address",
          "name": "to",
          "type": "address"
        },
        {
          "internalType": "uint256",
          "name": "tokenId",
          "type": "uint256"
        }
      ],
      "name": "transferFrom",
      "outputs": [],
      "stateMutability": "nonpayable",
      "type": "function"
    },
    {
      "inputs": [
        {
          "internalType": "address",
          "name": "newOwner",
          "type": "address"
        }
      ],
      "name": "transferOwnership",
      "outputs": [],
      "stateMutability": "nonpayable",
      "type": "function"
    },
    {
      "inputs": [],
      "name": "withdraw",
      "outputs": [],
      "stateMutability": "payable",
      "type": "function"
    }
  ],
  "bytecode": "0x60806040526000600a60006101000a81548160ff0219169083151502179055506000600a60016101000a81548160ff0219169083151502179055506001600a60026101000a81548160ff0219169083151502179055506103e8600c5567016345785d8a0000600d553480156200007457600080fd5b5060405162004f9b38038062004f9b83398181016040528101906200009a919062000430565b83838160009080519060200190620000b49291906200030e565b508060019080519060200190620000cd9291906200030e565b505050620000f0620000e46200014360201b60201c565b6200014b60201b60201c565b600160088190555081600f9080519060200190620001109291906200030e565b506200012860096200021160201b62001dd91760201c565b62000139816200022760201b60201c565b50505050620006f3565b600033905090565b6000600760009054906101000a900473ffffffffffffffffffffffffffffffffffffffff16905081600760006101000a81548173ffffffffffffffffffffffffffffffffffffffff021916908373ffffffffffffffffffffffffffffffffffffffff1602179055508173ffffffffffffffffffffffffffffffffffffffff168173ffffffffffffffffffffffffffffffffffffffff167f8be0079c531659141344cd1fd0a4f28419497f9722a3daafe3b4186f6b6457e060405160405180910390a35050565b6001816000016000828254019250508190555050565b620002376200025360201b60201c565b80600e90805190602001906200024f9291906200030e565b5050565b620002636200014360201b60201c565b73ffffffffffffffffffffffffffffffffffffffff1662000289620002e460201b60201c565b73ffffffffffffffffffffffffffffffffffffffff1614620002e2576040517f08c379a0000000000000000000000000000000000000000000000000000000008152600401620002d99062000527565b60405180910390fd5b565b6000600760009054906101000a900473ffffffffffffffffffffffffffffffffffffffff16905090565b8280546200031c90620005ef565b90600052602060002090601f0160209004810192826200034057600085556200038c565b82601f106200035b57805160ff19168380011785556200038c565b828001600101855582156200038c579182015b828111156200038b5782518255916020019190600101906200036e565b5b5090506200039b91906200039f565b5090565b5b80821115620003ba576000816000905550600101620003a0565b5090565b6000620003d5620003cf8462000572565b62000549565b905082815260208101848484011115620003ee57600080fd5b620003fb848285620005b9565b509392505050565b600082601f8301126200041557600080fd5b815162000427848260208601620003be565b91505092915050565b600080600080608085870312156200044757600080fd5b600085015167ffffffffffffffff8111156200046257600080fd5b620004708782880162000403565b945050602085015167ffffffffffffffff8111156200048e57600080fd5b6200049c8782880162000403565b935050604085015167ffffffffffffffff811115620004ba57600080fd5b620004c88782880162000403565b925050606085015167ffffffffffffffff811115620004e657600080fd5b620004f48782880162000403565b91505092959194509250565b60006200050f602083620005a8565b91506200051c82620006ca565b602082019050919050565b60006020820190508181036000830152620005428162000500565b9050919050565b60006200055562000568565b905062000563828262000625565b919050565b6000604051905090565b600067ffffffffffffffff82111562000590576200058f6200068a565b5b6200059b82620006b9565b9050602081019050919050565b600082825260208201905092915050565b60005b83811015620005d9578082015181840152602081019050620005bc565b83811115620005e9576000848401525b50505050565b600060028204905060018216806200060857607f821691505b602082108114156200061f576200061e6200065b565b5b50919050565b6200063082620006b9565b810181811067ffffffffffffffff821117156200065257620006516200068a565b5b80604052505050565b7f4e487b7100000000000000000000000000000000000000000000000000000000600052602260045260246000fd5b7f4e487b7100000000000000000000000000000000000000000000000000000000600052604160045260246000fd5b6000601f19601f8301169050919050565b7f4f776e61626c653a2063616c6c6572206973206e6f7420746865206f776e6572600082015250565b61489880620007036000396000f3fe6080604052600436106102465760003560e01c806370a0823111610139578063acec338a116100b6578063d02982cf1161007a578063d02982cf14610884578063e0a80853146108af578063e985e9c5146108d8578063f2c4ce1e14610915578063f2fde38b1461093e578063f36896cd1461096757610246565b8063acec338a1461078f578063b4032992146107b8578063b88d4fde146107f5578063c3d6ee7f1461081e578063c87b56dd1461084757610246565b8063a035b1fe116100fd578063a035b1fe146106cd578063a0712d68146106f8578063a22cb46514610714578063a84785cb1461073d578063ab8b4a541461076657610246565b806370a08231146105fa578063715018a6146106375780638da5cb5b1461064e57806391b7f5ed1461067957806395d89b41146106a257610246565b806332cb6b0c116101c757806354214f691161018b57806354214f6914610515578063564566a8146105405780635b9e3ccf1461056b5780636352211e146105945780636f8b44b0146105d157610246565b806332cb6b0c1461043d57806338e21cce146104685780633b34efb5146104a55780633ccfd60b146104e257806342842e0e146104ec57610246565b8063095ea7b31161020e578063095ea7b314610358578063100537ca1461038157806323b872dd146103ac57806324c49a78146103d55780633228e1801461041257610246565b806301ffc9a71461024b57806305a3b8091461028857806306fdde03146102c5578063081812fc146102f0578063081c8c441461032d575b600080fd5b34801561025757600080fd5b50610272600480360381019061026d9190613471565b6109a4565b60405161027f9190613acf565b60405180910390f35b34801561029457600080fd5b506102af60048036038101906102aa919061325c565b610a86565b6040516102bc9190613acf565b60405180910390f35b3480156102d157600080fd5b506102da610b5b565b6040516102e79190613aea565b60405180910390f35b3480156102fc57600080fd5b5061031760048036038101906103129190613504565b610bed565b6040516103249190613a68565b60405180910390f35b34801561033957600080fd5b50610342610c33565b60405161034f9190613aea565b60405180910390f35b34801561036457600080fd5b5061037f600480360381019061037a91906133c7565b610cc1565b005b34801561038d57600080fd5b50610396610dd9565b6040516103a39190613e0c565b60405180910390f35b3480156103b857600080fd5b506103d360048036038101906103ce91906132c1565b610dde565b005b3480156103e157600080fd5b506103fc60048036038101906103f7919061325c565b610e3e565b6040516104099190613e0c565b60405180910390f35b34801561041e57600080fd5b5061042761102c565b6040516104349190613acf565b60405180910390f35b34801561044957600080fd5b5061045261103f565b60405161045f9190613e0c565b60405180910390f35b34801561047457600080fd5b5061048f600480360381019061048a919061325c565b611045565b60405161049c9190613acf565b60405180910390f35b3480156104b157600080fd5b506104cc60048036038101906104c7919061325c565b611065565b6040516104d99190613e0c565b60405180910390f35b6104ea611181565b005b3480156104f857600080fd5b50610513600480360381019061050e91906132c1565b611258565b005b34801561052157600080fd5b5061052a611278565b6040516105379190613acf565b60405180910390f35b34801561054c57600080fd5b5061055561128b565b6040516105629190613acf565b60405180910390f35b34801561057757600080fd5b50610592600480360381019061058d9190613403565b61129e565b005b3480156105a057600080fd5b506105bb60048036038101906105b69190613504565b6112ca565b6040516105c89190613a68565b60405180910390f35b3480156105dd57600080fd5b506105f860048036038101906105f39190613504565b61137c565b005b34801561060657600080fd5b50610621600480360381019061061c919061325c565b61138e565b60405161062e9190613e0c565b60405180910390f35b34801561064357600080fd5b5061064c611446565b005b34801561065a57600080fd5b5061066361145a565b6040516106709190613a68565b60405180910390f35b34801561068557600080fd5b506106a0600480360381019061069b9190613504565b611484565b005b3480156106ae57600080fd5b506106b7611496565b6040516106c49190613aea565b60405180910390f35b3480156106d957600080fd5b506106e2611528565b6040516106ef9190613e0c565b60405180910390f35b610712600480360381019061070d9190613504565b61152e565b005b34801561072057600080fd5b5061073b6004803603810190610736919061338b565b6118db565b005b34801561074957600080fd5b50610764600480360381019061075f9190613448565b6118f1565b005b34801561077257600080fd5b5061078d60048036038101906107889190613504565b611916565b005b34801561079b57600080fd5b506107b660048036038101906107b19190613448565b611977565b005b3480156107c457600080fd5b506107df60048036038101906107da919061325c565b61199c565b6040516107ec9190613e0c565b60405180910390f35b34801561080157600080fd5b5061081c60048036038101906108179190613310565b6119b4565b005b34801561082a57600080fd5b50610845600480360381019061084091906134c3565b611a16565b005b34801561085357600080fd5b5061086e60048036038101906108699190613504565b611a38565b60405161087b9190613aea565b60405180910390f35b34801561089057600080fd5b50610899611be1565b6040516108a69190613acf565b60405180910390f35b3480156108bb57600080fd5b506108d660048036038101906108d19190613448565b611c3b565b005b3480156108e457600080fd5b506108ff60048036038101906108fa9190613285565b611c60565b60405161090c9190613acf565b60405180910390f35b34801561092157600080fd5b5061093c600480360381019061093791906134c3565b611cf4565b005b34801561094a57600080fd5b506109656004803603810190610960919061325c565b611d16565b005b34801561097357600080fd5b5061098e60048036038101906109899190613504565b611d9a565b60405161099b9190613a68565b60405180910390f35b60007f80ac58cd000000000000000000000000000000000000000000000000000000007bffffffffffffffffffffffffffffffffffffffffffffffffffffffff1916827bffffffffffffffffffffffffffffffffffffffffffffffffffffffff19161480610a6f57507f5b5e139f000000000000000000000000000000000000000000000000000000007bffffffffffffffffffffffffffffffffffffffffffffffffffffffff1916827bffffffffffffffffffffffffffffffffffffffffffffffffffffffff1916145b80610a7f5750610a7e82611def565b5b9050919050565b600080600090505b600b80549050811015610b50578273ffffffffffffffffffffffffffffffffffffffff16600b8281548110610aec577f4e487b7100000000000000000000000000000000000000000000000000000000600052603260045260246000fd5b9060005260206000200160009054906101000a900473ffffffffffffffffffffffffffffffffffffffff1673ffffffffffffffffffffffffffffffffffffffff161415610b3d576001915050610b56565b8080610b489061413f565b915050610a8e565b50600090505b919050565b606060008054610b6a906140dc565b80601f0160208091040260200160405190810160405280929190818152602001828054610b96906140dc565b8015610be35780601f10610bb857610100808354040283529160200191610be3565b820191906000526020600020905b815481529060010190602001808311610bc657829003601f168201915b5050505050905090565b6000610bf882611e59565b6004600083815260200190815260200160002060009054906101000a900473ffffffffffffffffffffffffffffffffffffffff169050919050565b600e8054610c40906140dc565b80601f0160208091040260200160405190810160405280929190818152602001828054610c6c906140dc565b8015610cb95780601f10610c8e57610100808354040283529160200191610cb9565b820191906000526020600020905b815481529060010190602001808311610c9c57829003601f168201915b505050505081565b6000610ccc826112ca565b90508073ffffffffffffffffffffffffffffffffffffffff168373ffffffffffffffffffffffffffffffffffffffff161415610d3d576040517f08c379a0000000000000000000000000000000000000000000000000000000008152600401610d3490613d4c565b60405180910390fd5b8073ffffffffffffffffffffffffffffffffffffffff16610d5c611ea4565b73ffffffffffffffffffffffffffffffffffffffff161480610d8b5750610d8a81610d85611ea4565b611c60565b5b610dca576040517f08c379a0000000000000000000000000000000000000000000000000000000008152600401610dc190613c6c565b60405180910390fd5b610dd48383611eac565b505050565b600181565b610def610de9611ea4565b82611f65565b610e2e576040517f08c379a0000000000000000000000000000000000000000000000000000000008152600401610e2590613dcc565b60405180910390fd5b610e39838383611ffa565b505050565b6000610e4861145a565b73ffffffffffffffffffffffffffffffffffffffff163373ffffffffffffffffffffffffffffffffffffffff161461102757426301e13380601160003373ffffffffffffffffffffffffffffffffffffffff1673ffffffffffffffffffffffffffffffffffffffff16815260200190815260200160002054610eca9190613f11565b11610f0a576040517f08c379a0000000000000000000000000000000000000000000000000000000008152600401610f0190613dac565b60405180910390fd5b8173ffffffffffffffffffffffffffffffffffffffff163373ffffffffffffffffffffffffffffffffffffffff161480610f765750610f4761145a565b73ffffffffffffffffffffffffffffffffffffffff163373ffffffffffffffffffffffffffffffffffffffff16145b15611025576000601160003373ffffffffffffffffffffffffffffffffffffffff1673ffffffffffffffffffffffffffffffffffffffff16815260200190815260200160002054111561102457426301e13380601160008573ffffffffffffffffffffffffffffffffffffffff1673ffffffffffffffffffffffffffffffffffffffff168152602001908152602001600020546110139190613f11565b61101d9190613ff2565b9050611026565b5b5b5b919050565b600a60029054906101000a900460ff1681565b600c5481565b60106020528060005260406000206000915054906101000a900460ff1681565b60008173ffffffffffffffffffffffffffffffffffffffff163373ffffffffffffffffffffffffffffffffffffffff1614806110d357506110a461145a565b73ffffffffffffffffffffffffffffffffffffffff163373ffffffffffffffffffffffffffffffffffffffff16145b1561117b576000601160008473ffffffffffffffffffffffffffffffffffffffff1673ffffffffffffffffffffffffffffffffffffffff16815260200190815260200160002054111561117257601160008373ffffffffffffffffffffffffffffffffffffffff1673ffffffffffffffffffffffffffffffffffffffff168152602001908152602001600020544261116b9190613ff2565b905061117c565b6000905061117c565b5b919050565b611189612261565b600260085414156111cf576040517f08c379a00000000000000000000000000000000000000000000000000000000081526004016111c690613dec565b60405180910390fd5b600260088190555060003373ffffffffffffffffffffffffffffffffffffffff16476040516111fd90613a53565b60006040518083038185875af1925050503d806000811461123a576040519150601f19603f3d011682016040523d82523d6000602084013e61123f565b606091505b505090508061124d57600080fd5b506001600881905550565b611273838383604051806020016040528060008152506119b4565b505050565b600a60019054906101000a900460ff1681565b600a60009054906101000a900460ff1681565b6112a6612261565b600b60006112b49190612f35565b8181600b91906112c5929190612f56565b505050565b6000806002600084815260200190815260200160002060009054906101000a900473ffffffffffffffffffffffffffffffffffffffff169050600073ffffffffffffffffffffffffffffffffffffffff168173ffffffffffffffffffffffffffffffffffffffff161415611373576040517f08c379a000000000000000000000000000000000000000000000000000000000815260040161136a90613d2c565b60405180910390fd5b80915050919050565b611384612261565b80600c8190555050565b60008073ffffffffffffffffffffffffffffffffffffffff168273ffffffffffffffffffffffffffffffffffffffff1614156113ff576040517f08c379a00000000000000000000000000000000000000000000000000000000081526004016113f690613c2c565b60405180910390fd5b600360008373ffffffffffffffffffffffffffffffffffffffff1673ffffffffffffffffffffffffffffffffffffffff168152602001908152602001600020549050919050565b61144e612261565b61145860006122df565b565b6000600760009054906101000a900473ffffffffffffffffffffffffffffffffffffffff16905090565b61148c612261565b80600d8190555050565b6060600180546114a5906140dc565b80601f01602080910402602001604051908101604052809291908181526020018280546114d1906140dc565b801561151e5780601f106114f35761010080835404028352916020019161151e565b820191906000526020600020905b81548152906001019060200180831161150157829003601f168201915b5050505050905090565b600d5481565b60011515600a60009054906101000a900460ff16151514611584576040517f08c379a000000000000000000000000000000000000000000000000000000000815260040161157b90613b0c565b60405180910390fd5b61158d33610a86565b6115cc576040517f08c379a00000000000000000000000000000000000000000000000000000000081526004016115c390613c0c565b60405180910390fd5b6000811161160f576040517f08c379a000000000000000000000000000000000000000000000000000000000815260040161160690613cec565b60405180910390fd5b600c548161161d60096123a5565b6116279190613f11565b1115611668576040517f08c379a000000000000000000000000000000000000000000000000000000000815260040161165f90613c4c565b60405180910390fd5b80600d546116769190613f98565b3410156116b8576040517f08c379a00000000000000000000000000000000000000000000000000000000081526004016116af90613d8c565b60405180910390fd5b6116c061145a565b73ffffffffffffffffffffffffffffffffffffffff163373ffffffffffffffffffffffffffffffffffffffff16146117cb5760011515601060003373ffffffffffffffffffffffffffffffffffffffff1673ffffffffffffffffffffffffffffffffffffffff16815260200190815260200160002060009054906101000a900460ff1615151415611786576040517f08c379a000000000000000000000000000000000000000000000000000000000815260040161177d90613bec565b60405180910390fd5b60018111156117ca576040517f08c379a00000000000000000000000000000000000000000000000000000000081526004016117c190613d0c565b60405180910390fd5b5b6001601060003373ffffffffffffffffffffffffffffffffffffffff1673ffffffffffffffffffffffffffffffffffffffff16815260200190815260200160002060006101000a81548160ff02191690831515021790555042601160003373ffffffffffffffffffffffffffffffffffffffff1673ffffffffffffffffffffffffffffffffffffffff16815260200190815260200160002081905550600061187360096123a5565b905061187f6009611dd9565b61188933826123b3565b3373ffffffffffffffffffffffffffffffffffffffff167f134410497c691e51932c2dbb8971f79192572d5ca5897c02a5a5eedd1c1d0d0f826040516118cf9190613e0c565b60405180910390a25050565b6118ed6118e6611ea4565b83836123d1565b5050565b6118f9612261565b80600a60026101000a81548160ff02191690831515021790555050565b61191e612261565b60006011600061192d846112ca565b73ffffffffffffffffffffffffffffffffffffffff1673ffffffffffffffffffffffffffffffffffffffff168152602001908152602001600020819055506119748161253e565b50565b61197f612261565b80600a60006101000a81548160ff02191690831515021790555050565b60116020528060005260406000206000915090505481565b6119c56119bf611ea4565b83611f65565b611a04576040517f08c379a00000000000000000000000000000000000000000000000000000000081526004016119fb90613dcc565b60405180910390fd5b611a1084848484612591565b50505050565b611a1e612261565b80600f9080519060200190611a34929190612ff6565b5050565b6060611a4460096123a5565b821115611a86576040517f08c379a0000000000000000000000000000000000000000000000000000000008152600401611a7d90613ccc565b60405180910390fd5b60001515600a60019054906101000a900460ff1615151415611b3457600e8054611aaf906140dc565b80601f0160208091040260200160405190810160405280929190818152602001828054611adb906140dc565b8015611b285780601f10611afd57610100808354040283529160200191611b28565b820191906000526020600020905b815481529060010190602001808311611b0b57829003601f168201915b50505050509050611bdc565b60006040518060400160405280600781526020017f697066733a2f2f00000000000000000000000000000000000000000000000000815250905060006040518060400160405280600581526020017f2e6a736f6e000000000000000000000000000000000000000000000000000000815250905081600f611bb4866125ed565b83604051602001611bc89493929190613a0a565b604051602081830303815290604052925050505b919050565b600080601160003373ffffffffffffffffffffffffffffffffffffffff1673ffffffffffffffffffffffffffffffffffffffff168152602001908152602001600020541115611c335760019050611c38565b600090505b90565b611c43612261565b80600a60016101000a81548160ff02191690831515021790555050565b6000600560008473ffffffffffffffffffffffffffffffffffffffff1673ffffffffffffffffffffffffffffffffffffffff16815260200190815260200160002060008373ffffffffffffffffffffffffffffffffffffffff1673ffffffffffffffffffffffffffffffffffffffff16815260200190815260200160002060009054906101000a900460ff16905092915050565b611cfc612261565b80600e9080519060200190611d12929190612ff6565b5050565b611d1e612261565b600073ffffffffffffffffffffffffffffffffffffffff168173ffffffffffffffffffffffffffffffffffffffff161415611d8e576040517f08c379a0000000000000000000000000000000000000000000000000000000008152600401611d8590613b4c565b60405180910390fd5b611d97816122df565b50565b600b8181548110611daa57600080fd5b906000526020600020016000915054906101000a900473ffffffffffffffffffffffffffffffffffffffff1681565b6001816000016000828254019250508190555050565b60007f01ffc9a7000000000000000000000000000000000000000000000000000000007bffffffffffffffffffffffffffffffffffffffffffffffffffffffff1916827bffffffffffffffffffffffffffffffffffffffffffffffffffffffff1916149050919050565b611e628161279a565b611ea1576040517f08c379a0000000000000000000000000000000000000000000000000000000008152600401611e9890613d2c565b60405180910390fd5b50565b600033905090565b816004600083815260200190815260200160002060006101000a81548173ffffffffffffffffffffffffffffffffffffffff021916908373ffffffffffffffffffffffffffffffffffffffff160217905550808273ffffffffffffffffffffffffffffffffffffffff16611f1f836112ca565b73ffffffffffffffffffffffffffffffffffffffff167f8c5be1e5ebec7d5bd14f71427d1e84f3dd0314c0f7b2291e5b200ac8c7c3b92560405160405180910390a45050565b600080611f71836112ca565b90508073ffffffffffffffffffffffffffffffffffffffff168473ffffffffffffffffffffffffffffffffffffffff161480611fb35750611fb28185611c60565b5b80611ff157508373ffffffffffffffffffffffffffffffffffffffff16611fd984610bed565b73ffffffffffffffffffffffffffffffffffffffff16145b91505092915050565b8273ffffffffffffffffffffffffffffffffffffffff1661201a826112ca565b73ffffffffffffffffffffffffffffffffffffffff1614612070576040517f08c379a000000000000000000000000000000000000000000000000000000000815260040161206790613b6c565b60405180910390fd5b600073ffffffffffffffffffffffffffffffffffffffff168273ffffffffffffffffffffffffffffffffffffffff1614156120e0576040517f08c379a00000000000000000000000000000000000000000000000000000000081526004016120d790613bac565b60405180910390fd5b6120eb838383612806565b6120f6600082611eac565b6001600360008573ffffffffffffffffffffffffffffffffffffffff1673ffffffffffffffffffffffffffffffffffffffff16815260200190815260200160002060008282546121469190613ff2565b925050819055506001600360008473ffffffffffffffffffffffffffffffffffffffff1673ffffffffffffffffffffffffffffffffffffffff168152602001908152602001600020600082825461219d9190613f11565b92505081905550816002600083815260200190815260200160002060006101000a81548173ffffffffffffffffffffffffffffffffffffffff021916908373ffffffffffffffffffffffffffffffffffffffff160217905550808273ffffffffffffffffffffffffffffffffffffffff168473ffffffffffffffffffffffffffffffffffffffff167fddf252ad1be2c89b69c2b068fc378daa952ba7f163c4a11628f55a4df523b3ef60405160405180910390a461225c83838361292b565b505050565b612269611ea4565b73ffffffffffffffffffffffffffffffffffffffff1661228761145a565b73ffffffffffffffffffffffffffffffffffffffff16146122dd576040517f08c379a00000000000000000000000000000000000000000000000000000000081526004016122d490613cac565b60405180910390fd5b565b6000600760009054906101000a900473ffffffffffffffffffffffffffffffffffffffff16905081600760006101000a81548173ffffffffffffffffffffffffffffffffffffffff021916908373ffffffffffffffffffffffffffffffffffffffff1602179055508173ffffffffffffffffffffffffffffffffffffffff168173ffffffffffffffffffffffffffffffffffffffff167f8be0079c531659141344cd1fd0a4f28419497f9722a3daafe3b4186f6b6457e060405160405180910390a35050565b600081600001549050919050565b6123cd828260405180602001604052806000815250612a29565b5050565b8173ffffffffffffffffffffffffffffffffffffffff168373ffffffffffffffffffffffffffffffffffffffff161415612440576040517f08c379a000000000000000000000000000000000000000000000000000000000815260040161243790613bcc565b60405180910390fd5b80600560008573ffffffffffffffffffffffffffffffffffffffff1673ffffffffffffffffffffffffffffffffffffffff16815260200190815260200160002060008473ffffffffffffffffffffffffffffffffffffffff1673ffffffffffffffffffffffffffffffffffffffff16815260200190815260200160002060006101000a81548160ff0219169083151502179055508173ffffffffffffffffffffffffffffffffffffffff168373ffffffffffffffffffffffffffffffffffffffff167f17307eab39ab6107e8899845ad3d59bd9653f200f220920489ca2b5937696c31836040516125319190613acf565b60405180910390a3505050565b61254781612a84565b6000600660008381526020019081526020016000208054612567906140dc565b90501461258e5760066000828152602001908152602001600020600061258d919061307c565b5b50565b61259c848484611ffa565b6125a884848484612ba1565b6125e7576040517f08c379a00000000000000000000000000000000000000000000000000000000081526004016125de90613b2c565b60405180910390fd5b50505050565b60606000821415612635576040518060400160405280600181526020017f30000000000000000000000000000000000000000000000000000000000000008152509050612795565b600082905060005b600082146126675780806126509061413f565b915050600a826126609190613f67565b915061263d565b60008167ffffffffffffffff8111156126a9577f4e487b7100000000000000000000000000000000000000000000000000000000600052604160045260246000fd5b6040519080825280601f01601f1916602001820160405280156126db5781602001600182028036833780820191505090505b5090505b6000851461278e576001826126f49190613ff2565b9150600a856127039190614188565b603061270f9190613f11565b60f81b81838151811061274b577f4e487b7100000000000000000000000000000000000000000000000000000000600052603260045260246000fd5b60200101907effffffffffffffffffffffffffffffffffffffffffffffffffffffffffffff1916908160001a905350600a856127879190613f67565b94506126df565b8093505050505b919050565b60008073ffffffffffffffffffffffffffffffffffffffff166002600084815260200190815260200160002060009054906101000a900473ffffffffffffffffffffffffffffffffffffffff1673ffffffffffffffffffffffffffffffffffffffff1614159050919050565b600073ffffffffffffffffffffffffffffffffffffffff168373ffffffffffffffffffffffffffffffffffffffff161480612873575061284461145a565b73ffffffffffffffffffffffffffffffffffffffff168373ffffffffffffffffffffffffffffffffffffffff16145b806128aa5750600073ffffffffffffffffffffffffffffffffffffffff168273ffffffffffffffffffffffffffffffffffffffff16145b806128e757506128b861145a565b73ffffffffffffffffffffffffffffffffffffffff168273ffffffffffffffffffffffffffffffffffffffff16145b612926576040517f08c379a000000000000000000000000000000000000000000000000000000000815260040161291d90613d6c565b60405180910390fd5b505050565b600073ffffffffffffffffffffffffffffffffffffffff168373ffffffffffffffffffffffffffffffffffffffff1614156129a957808273ffffffffffffffffffffffffffffffffffffffff167fe9274a84b19e9428826de6bae8c48329354f8f0e73f771b97cae2d9dccd45a2760405160405180910390a3612a24565b600073ffffffffffffffffffffffffffffffffffffffff168273ffffffffffffffffffffffffffffffffffffffff161415612a2357808273ffffffffffffffffffffffffffffffffffffffff167fec9ab91322523c899ede7830ec9bfc992b5981cdcc27b91162fb23de5791117b60405160405180910390a35b5b505050565b612a338383612d38565b612a406000848484612ba1565b612a7f576040517f08c379a0000000000000000000000000000000000000000000000000000000008152600401612a7690613b2c565b60405180910390fd5b505050565b6000612a8f826112ca565b9050612a9d81600084612806565b612aa8600083611eac565b6001600360008373ffffffffffffffffffffffffffffffffffffffff1673ffffffffffffffffffffffffffffffffffffffff1681526020019081526020016000206000828254612af89190613ff2565b925050819055506002600083815260200190815260200160002060006101000a81549073ffffffffffffffffffffffffffffffffffffffff021916905581600073ffffffffffffffffffffffffffffffffffffffff168273ffffffffffffffffffffffffffffffffffffffff167fddf252ad1be2c89b69c2b068fc378daa952ba7f163c4a11628f55a4df523b3ef60405160405180910390a4612b9d8160008461292b565b5050565b6000612bc28473ffffffffffffffffffffffffffffffffffffffff16612f12565b15612d2b578373ffffffffffffffffffffffffffffffffffffffff1663150b7a02612beb611ea4565b8786866040518563ffffffff1660e01b8152600401612c0d9493929190613a83565b602060405180830381600087803b158015612c2757600080fd5b505af1925050508015612c5857506040513d601f19601f82011682018060405250810190612c55919061349a565b60015b612cdb573d8060008114612c88576040519150601f19603f3d011682016040523d82523d6000602084013e612c8d565b606091505b50600081511415612cd3576040517f08c379a0000000000000000000000000000000000000000000000000000000008152600401612cca90613b2c565b60405180910390fd5b805181602001fd5b63150b7a0260e01b7bffffffffffffffffffffffffffffffffffffffffffffffffffffffff1916817bffffffffffffffffffffffffffffffffffffffffffffffffffffffff191614915050612d30565b600190505b949350505050565b600073ffffffffffffffffffffffffffffffffffffffff168273ffffffffffffffffffffffffffffffffffffffff161415612da8576040517f08c379a0000000000000000000000000000000000000000000000000000000008152600401612d9f90613c8c565b60405180910390fd5b612db18161279a565b15612df1576040517f08c379a0000000000000000000000000000000000000000000000000000000008152600401612de890613b8c565b60405180910390fd5b612dfd60008383612806565b6001600360008473ffffffffffffffffffffffffffffffffffffffff1673ffffffffffffffffffffffffffffffffffffffff1681526020019081526020016000206000828254612e4d9190613f11565b92505081905550816002600083815260200190815260200160002060006101000a81548173ffffffffffffffffffffffffffffffffffffffff021916908373ffffffffffffffffffffffffffffffffffffffff160217905550808273ffffffffffffffffffffffffffffffffffffffff16600073ffffffffffffffffffffffffffffffffffffffff167fddf252ad1be2c89b69c2b068fc378daa952ba7f163c4a11628f55a4df523b3ef60405160405180910390a4612f0e6000838361292b565b5050565b6000808273ffffffffffffffffffffffffffffffffffffffff163b119050919050565b5080546000825590600052602060002090810190612f5391906130bc565b50565b828054828255906000526020600020908101928215612fe5579160200282015b82811115612fe457823573ffffffffffffffffffffffffffffffffffffffff168260006101000a81548173ffffffffffffffffffffffffffffffffffffffff021916908373ffffffffffffffffffffffffffffffffffffffff16021790555091602001919060010190612f76565b5b509050612ff291906130bc565b5090565b828054613002906140dc565b90600052602060002090601f016020900481019282613024576000855561306b565b82601f1061303d57805160ff191683800117855561306b565b8280016001018555821561306b579182015b8281111561306a57825182559160200191906001019061304f565b5b50905061307891906130bc565b5090565b508054613088906140dc565b6000825580601f1061309a57506130b9565b601f0160209004906000526020600020908101906130b891906130bc565b5b50565b5b808211156130d55760008160009055506001016130bd565b5090565b60006130ec6130e784613e4c565b613e27565b90508281526020810184848401111561310457600080fd5b61310f84828561409a565b509392505050565b600061312a61312584613e7d565b613e27565b90508281526020810184848401111561314257600080fd5b61314d84828561409a565b509392505050565b60008135905061316481614806565b92915050565b60008083601f84011261317c57600080fd5b8235905067ffffffffffffffff81111561319557600080fd5b6020830191508360208202830111156131ad57600080fd5b9250929050565b6000813590506131c38161481d565b92915050565b6000813590506131d881614834565b92915050565b6000815190506131ed81614834565b92915050565b600082601f83011261320457600080fd5b81356132148482602086016130d9565b91505092915050565b600082601f83011261322e57600080fd5b813561323e848260208601613117565b91505092915050565b6000813590506132568161484b565b92915050565b60006020828403121561326e57600080fd5b600061327c84828501613155565b91505092915050565b6000806040838503121561329857600080fd5b60006132a685828601613155565b92505060206132b785828601613155565b9150509250929050565b6000806000606084860312156132d657600080fd5b60006132e486828701613155565b93505060206132f586828701613155565b925050604061330686828701613247565b9150509250925092565b6000806000806080858703121561332657600080fd5b600061333487828801613155565b945050602061334587828801613155565b935050604061335687828801613247565b925050606085013567ffffffffffffffff81111561337357600080fd5b61337f878288016131f3565b91505092959194509250565b6000806040838503121561339e57600080fd5b60006133ac85828601613155565b92505060206133bd858286016131b4565b9150509250929050565b600080604083850312156133da57600080fd5b60006133e885828601613155565b92505060206133f985828601613247565b9150509250929050565b6000806020838503121561341657600080fd5b600083013567ffffffffffffffff81111561343057600080fd5b61343c8582860161316a565b92509250509250929050565b60006020828403121561345a57600080fd5b6000613468848285016131b4565b91505092915050565b60006020828403121561348357600080fd5b6000613491848285016131c9565b91505092915050565b6000602082840312156134ac57600080fd5b60006134ba848285016131de565b91505092915050565b6000602082840312156134d557600080fd5b600082013567ffffffffffffffff8111156134ef57600080fd5b6134fb8482850161321d565b91505092915050565b60006020828403121561351657600080fd5b600061352484828501613247565b91505092915050565b61353681614026565b82525050565b61354581614038565b82525050565b600061355682613ec3565b6135608185613ed9565b93506135708185602086016140a9565b61357981614275565b840191505092915050565b600061358f82613ece565b6135998185613ef5565b93506135a98185602086016140a9565b6135b281614275565b840191505092915050565b60006135c882613ece565b6135d28185613f06565b93506135e28185602086016140a9565b80840191505092915050565b600081546135fb816140dc565b6136058186613f06565b94506001821660008114613620576001811461363157613664565b60ff19831686528186019350613664565b61363a85613eae565b60005b8381101561365c5781548189015260018201915060208101905061363d565b838801955050505b50505092915050565b600061367a602383613ef5565b915061368582614286565b604082019050919050565b600061369d603283613ef5565b91506136a8826142d5565b604082019050919050565b60006136c0602683613ef5565b91506136cb82614324565b604082019050919050565b60006136e3602583613ef5565b91506136ee82614373565b604082019050919050565b6000613706601c83613ef5565b9150613711826143c2565b602082019050919050565b6000613729602483613ef5565b9150613734826143eb565b604082019050919050565b600061374c601983613ef5565b91506137578261443a565b602082019050919050565b600061376f601a83613ef5565b915061377a82614463565b602082019050919050565b6000613792601783613ef5565b915061379d8261448c565b602082019050919050565b60006137b5602983613ef5565b91506137c0826144b5565b604082019050919050565b60006137d8601683613ef5565b91506137e382614504565b602082019050919050565b60006137fb603e83613ef5565b91506138068261452d565b604082019050919050565b600061381e602083613ef5565b91506138298261457c565b602082019050919050565b6000613841602083613ef5565b915061384c826145a5565b602082019050919050565b6000613864602f83613ef5565b915061386f826145ce565b604082019050919050565b6000613887601b83613ef5565b91506138928261461d565b602082019050919050565b60006138aa601883613ef5565b91506138b582614646565b602082019050919050565b60006138cd601883613ef5565b91506138d88261466f565b602082019050919050565b60006138f0602183613ef5565b91506138fb82614698565b604082019050919050565b6000613913601e83613ef5565b915061391e826146e7565b602082019050919050565b6000613936600083613eea565b915061394182614710565b600082019050919050565b6000613959601283613ef5565b915061396482614713565b602082019050919050565b600061397c601b83613ef5565b91506139878261473c565b602082019050919050565b600061399f602e83613ef5565b91506139aa82614765565b604082019050919050565b60006139c2601f83613ef5565b91506139cd826147b4565b602082019050919050565b60006139e5600183613f06565b91506139f0826147dd565b600182019050919050565b613a0481614090565b82525050565b6000613a1682876135bd565b9150613a2282866135ee565b9150613a2d826139d8565b9150613a3982856135bd565b9150613a4582846135bd565b915081905095945050505050565b6000613a5e82613929565b9150819050919050565b6000602082019050613a7d600083018461352d565b92915050565b6000608082019050613a98600083018761352d565b613aa5602083018661352d565b613ab260408301856139fb565b8181036060830152613ac4818461354b565b905095945050505050565b6000602082019050613ae4600083018461353c565b92915050565b60006020820190508181036000830152613b048184613584565b905092915050565b60006020820190508181036000830152613b258161366d565b9050919050565b60006020820190508181036000830152613b4581613690565b9050919050565b60006020820190508181036000830152613b65816136b3565b9050919050565b60006020820190508181036000830152613b85816136d6565b9050919050565b60006020820190508181036000830152613ba5816136f9565b9050919050565b60006020820190508181036000830152613bc58161371c565b9050919050565b60006020820190508181036000830152613be58161373f565b9050919050565b60006020820190508181036000830152613c0581613762565b9050919050565b60006020820190508181036000830152613c2581613785565b9050919050565b60006020820190508181036000830152613c45816137a8565b9050919050565b60006020820190508181036000830152613c65816137cb565b9050919050565b60006020820190508181036000830152613c85816137ee565b9050919050565b60006020820190508181036000830152613ca581613811565b9050919050565b60006020820190508181036000830152613cc581613834565b9050919050565b60006020820190508181036000830152613ce581613857565b9050919050565b60006020820190508181036000830152613d058161387a565b9050919050565b60006020820190508181036000830152613d258161389d565b9050919050565b60006020820190508181036000830152613d45816138c0565b9050919050565b60006020820190508181036000830152613d65816138e3565b9050919050565b60006020820190508181036000830152613d8581613906565b9050919050565b60006020820190508181036000830152613da58161394c565b9050919050565b60006020820190508181036000830152613dc58161396f565b9050919050565b60006020820190508181036000830152613de581613992565b9050919050565b60006020820190508181036000830152613e05816139b5565b9050919050565b6000602082019050613e2160008301846139fb565b92915050565b6000613e31613e42565b9050613e3d828261410e565b919050565b6000604051905090565b600067ffffffffffffffff821115613e6757613e66614246565b5b613e7082614275565b9050602081019050919050565b600067ffffffffffffffff821115613e9857613e97614246565b5b613ea182614275565b9050602081019050919050565b60008190508160005260206000209050919050565b600081519050919050565b600081519050919050565b600082825260208201905092915050565b600081905092915050565b600082825260208201905092915050565b600081905092915050565b6000613f1c82614090565b9150613f2783614090565b9250827fffffffffffffffffffffffffffffffffffffffffffffffffffffffffffffffff03821115613f5c57613f5b6141b9565b5b828201905092915050565b6000613f7282614090565b9150613f7d83614090565b925082613f8d57613f8c6141e8565b5b828204905092915050565b6000613fa382614090565b9150613fae83614090565b9250817fffffffffffffffffffffffffffffffffffffffffffffffffffffffffffffffff0483118215151615613fe757613fe66141b9565b5b828202905092915050565b6000613ffd82614090565b915061400883614090565b92508282101561401b5761401a6141b9565b5b828203905092915050565b600061403182614070565b9050919050565b60008115159050919050565b60007fffffffff0000000000000000000000000000000000000000000000000000000082169050919050565b600073ffffffffffffffffffffffffffffffffffffffff82169050919050565b6000819050919050565b82818337600083830152505050565b60005b838110156140c75780820151818401526020810190506140ac565b838111156140d6576000848401525b50505050565b600060028204905060018216806140f457607f821691505b6020821081141561410857614107614217565b5b50919050565b61411782614275565b810181811067ffffffffffffffff8211171561413657614135614246565b5b80604052505050565b600061414a82614090565b91507fffffffffffffffffffffffffffffffffffffffffffffffffffffffffffffffff82141561417d5761417c6141b9565b5b600182019050919050565b600061419382614090565b915061419e83614090565b9250826141ae576141ad6141e8565b5b828206905092915050565b7f4e487b7100000000000000000000000000000000000000000000000000000000600052601160045260246000fd5b7f4e487b7100000000000000000000000000000000000000000000000000000000600052601260045260246000fd5b7f4e487b7100000000000000000000000000000000000000000000000000000000600052602260045260246000fd5b7f4e487b7100000000000000000000000000000000000000000000000000000000600052604160045260246000fd5b6000601f19601f8301169050919050565b7f486f6c6420757021205468652073616c65206973206e6f74206163746976652060008201527f7965740000000000000000000000000000000000000000000000000000000000602082015250565b7f4552433732313a207472616e7366657220746f206e6f6e20455243373231526560008201527f63656976657220696d706c656d656e7465720000000000000000000000000000602082015250565b7f4f776e61626c653a206e6577206f776e657220697320746865207a65726f206160008201527f6464726573730000000000000000000000000000000000000000000000000000602082015250565b7f4552433732313a207472616e736665722066726f6d20696e636f72726563742060008201527f6f776e6572000000000000000000000000000000000000000000000000000000602082015250565b7f4552433732313a20746f6b656e20616c7265616479206d696e74656400000000600082015250565b7f4552433732313a207472616e7366657220746f20746865207a65726f2061646460008201527f7265737300000000000000000000000000000000000000000000000000000000602082015250565b7f4552433732313a20617070726f766520746f2063616c6c657200000000000000600082015250565b7f416464726573732068617320616c7265616479206d696e746564000000000000600082015250565b7f55736572206973206e6f7420616c6c6f776c6973746564000000000000000000600082015250565b7f4552433732313a2061646472657373207a65726f206973206e6f74206120766160008201527f6c6964206f776e65720000000000000000000000000000000000000000000000602082015250565b7f6d6178204e4654206c696d697420657863656564656400000000000000000000600082015250565b7f4552433732313a20617070726f76652063616c6c6572206973206e6f7420746f60008201527f6b656e206f776e6572206e6f7220617070726f76656420666f7220616c6c0000602082015250565b7f4552433732313a206d696e7420746f20746865207a65726f2061646472657373600082015250565b7f4f776e61626c653a2063616c6c6572206973206e6f7420746865206f776e6572600082015250565b7f4552433732314d657461646174613a2055524920717565727920666f72206e6f60008201527f6e6578697374656e7420746f6b656e0000000000000000000000000000000000602082015250565b7f596f752063616e2774206275792030206d656d62657273686970730000000000600082015250565b7f6d6178206d696e7420616d6f756e742065786365656465640000000000000000600082015250565b7f4552433732313a20696e76616c696420746f6b656e2049440000000000000000600082015250565b7f4552433732313a20617070726f76616c20746f2063757272656e74206f776e6560008201527f7200000000000000000000000000000000000000000000000000000000000000602082015250565b7f596f752063616e6e6f74207472616e73666572207468697320746f6b656e0000600082015250565b50565b7f696e73756666696369656e742066756e64730000000000000000000000000000600082015250565b7f596f7572206d656d626572736869702068617320657870697265640000000000600082015250565b7f4552433732313a2063616c6c6572206973206e6f7420746f6b656e206f776e6560008201527f72206e6f7220617070726f766564000000000000000000000000000000000000602082015250565b7f5265656e7472616e637947756172643a207265656e7472616e742063616c6c00600082015250565b7f2f00000000000000000000000000000000000000000000000000000000000000600082015250565b61480f81614026565b811461481a57600080fd5b50565b61482681614038565b811461483157600080fd5b50565b61483d81614044565b811461484857600080fd5b50565b61485481614090565b811461485f57600080fd5b5056fea2646970667358221220b61efead361adb85687c1942684627c6dcbb4bb9e308aa9bb1f537d1df0bb4af64736f6c63430008010033",
  "linkReferences": {},
  "deployedLinkReferences": {}
}